:10E000000000034B45593406F6FFD0C40127F9F64A
:10E01000FFD14F6EB1E002044B45593F34064FF635
:10E02000FFD0C4012702C6FF6EB1E01704454D4979
:10E0300054B6FFD0840227F9F7FFD135066EB1360A
:10E040002035206EB1351034061F106EB1E02C045F
:10E050004558495437206EB1E04F034C49543406BB
:10E06000ECA16EB1E05A07455845435554451F0190
:10E0700035066E84E0660344555034066EB1E07692
:10E08000043F44555010830000270234066EB1E06F
:10E09000800444524F5035066EB1E091045357410D
:10E0A00050AEE4EDE41F106EB1E09C044F564552B3
:10E0B0003406EC626EB1E0AB03524F54AEE4EDE4D3
:10E0C000EC62AF626EB1E0B8034E495032626EB19D
:10E0D000E0C8045455434BAEE4EDE434106EB1E0B7
:10E0E000D2045049434B5849ECEB6EB1E0E1023E9B
:10E0F00052360635066EB1E0EE02523E3406370661
:10E100006EB1E0F90252403406ECC46EB1E1040392
:10E1100053504034061F406EB1E10F035350211F8E
:10E120000435066EB1E11B0352504034061F306EB9
:10E13000B1E127035250211F0335066EB1E13301CF
:10E14000211F013506ED8435066EB1E13F02432102
:10E150001F013506E78435066EB1E14D01401F0110
:10E16000EC846EB1E15C0243401F01E6844F6EB166
:10E17000E166012BE3E16EB1E172024D2BE362ED4A
:10E18000623506C90089006EB1E17A012DA3E14331
:10E1900053C300016EB1E18B064E454741544543E0
:10E1A00053C300016EB1E19803414E44A4E0E4E0A2
:10E1B0006EB1E1A8024F52AAE0EAE06EB1E1B40309
:10E1C000584F52A8E0E8E06EB1E1BF06494E56450F
:10E1D000525443536EB1E1CB023E3C1E896EB1E115
:10E1E000D802312BC300016EB1E1E102312D830071
:10E1F000016EB1E1EB02322A58496EB1E1F502320B
:10E200002F47566EB1E1FE022B211F013506E38434
:10E21000ED8435066EB1E207064C53484946541F5B
:10E22000013506308427065849301F26FA6EB1E2C0
:10E2300018065253484946541F01350630842706B4
:10E240004456301F26FA6EB1E23102303D10830091
:10E25000002605CCFFFF6EB14F5F6EB1E24A02307F
:10E260003C4D2BEF4F5F6EB1E25E013DA3E127E332
:10E270004F5F6EB1E26A023C3EA3E126D64F5F6E6D
:10E28000B1E276013CA3E12ECA4F5F6EB1E2830199
:10E290003EA3E12DBE4F5F6EB1E28F02553CA3E17C
:10E2A00022B14F5F6EB1E29B02553EA3E125A44F20
:10E2B0005F6EB1E2A8064252414E434810AEA46ED2
:10E2C000B1E2B5073F4252414E4348108300002659
:10E2D00007350610AEA46EB1350631226EB1E2C329
:10E2E0000428444F291F01CC8000A3E13606308B5F
:10E2F000361035066EB1E2E006554E4C4F4F5033A6
:10E30000446EB1E2F806284C4F4F50293406ECC455
:10E31000C300012909EDC410AEA435066EB1312247
:10E32000334435066EB1E30507282B4C4F4F502977
:10E33000E3C428E13122334435066EB1E3280149B4
:10E340003406ECC4A3426EB1E33E014A3406EC4409
:10E35000A3466EB1E34A03554D2A3416A665E6611D
:10E360003DED62A664E6613DEB628900ED61A66564
:10E37000E6E43DE361ED614F49E6E4A7E4A6643DD0
:10E38000E3E4AE623264AFE46EB1E35606554D2F5E
:10E390004D4F4434068E0010686569646963696294
:10E3A000EC622408A3E4ED621CFE2006A3E425022F
:10E3B000ED6269656964301F26E2EC644353AE6226
:10E3C000AF6432646EB1E38C0446494C4C36203560
:10E3D000308C00002706E7A0301F26FA35063720CC
:10E3E0006EB1E3C802533DE362AE6210AF6210AE9D
:10E3F000E4EDE45FACE42712A680A0A0270AC200E7
:10E400001F98CA0135306EB120EA1F9835306EB1C1
:10E41000E3E405434D4F5645E362AE6210AF621030
:10E42000AEE4EDE4ACE42706E680E7A020F6353064
:10E4300035066EB1E41206434D4F56453EAE62308E
:10E440008B10AF6210AEE431AB10ACE42706E6826D
:10E45000E7A220F5353035066EB1313F34201F106C
:10E4600037206EB1E43604534B4950362035308C9A
:10E4700000002708E1A026E2301F26F820DEE4662F
:10E48000045343414E362035308C00002708E1A06C
:10E4900027C8301F26F820C4E48007414C49474E66
:10E4A00045446EB1E49A05414C49474E6EB1E4A62D
:10E4B0000543454C4C2BC300026EB1E4B005434507
:10E4C0004C4C5358496EB1E4BD05434841522BC3EF
:10E4D00000016EB1E4C90543484152536EB1E4D620
:10E4E000053E424F4459C300036EB1E4E008434F78
:10E4F0004D50494C452CBDE03FECFAE054E4ED03AF
:10E50000214346BDE03FE05E00BDE0B0E150E1E404
:10E51000E141E054E4FF032C4346BDE03FECDCE581
:10E5200003E05E0003ECEDE054E5160621434F4C9A
:10E530004F4EBDE03FE05EFFFDECEDE05EE03FE50D
:10E540001AE054E52B052C45584954BDE03FE05EE8
:10E55000E054E4F6E054E545072C4252414E43486E
:10E56000BDE03FECFAE054E558052C44455354BD5A
:10E57000E03FECFAE054E569052144455354BDE021
:10E580003FE141E05436203520351034061F106E2F
:10E59000B1E5780728444F45533E29BDE03FE0FCF4
:10E5A000E7FDE15EEDD5E503E054E59345444F45D5
:10E5B000533EBDE03FE05EE59BE4F6E05EE585E5C9
:10E5C0001AE054E5AC013ABDE03FF102F163F14FCE
:10E5D000E532E054E5C5413BBDE03FF183E54BF159
:10E5E0003EE054E5D608434F4E5354414E54BDE0EF
:10E5F0003FF102ECFAE59B35103406EC846EB1E590
:10E60000E5085641524941424C45BDE03FF102E721
:10E6100084ECEDE054E6010455534552BDE03FF172
:10E6200002ECFAE59B351034061FB85FE3846EB147
:10E63000E617424946BDE03FE05EE2CBE560ECDC38
:10E64000E07AE56FE054E632445448454EBDE03F81
:10E65000ECDCE0A1E57EE054E64844454C5345BD82
:10E66000E03FE05EE2BCE560ECDCE07AE56FE0A173
:10E67000E64DE054E65A45424547494EBDE03FEC81
:10E68000DCE054E67645554E54494CBDE03FE05E33
:10E69000E2CBE560E56FE054E68545414741494EF0
:10E6A000BDE03FE05EE2BCE560E56FE054E69A4520
:10E6B0005748494C45BDE03FE635E054E6AF465289
:10E6C0004550454154BDE03FE0A1E6A0E64DE05491
:10E6D000E6BE023E4CBDE03FE784E811E20AE811E5
:10E6E000E15EE141E054E6D2024C3EBDE03FE8117C
:10E6F000E15EE15EE784E19FE811E20AE054E6E8CA
:10E7000042444FBDE03FE05EE2E5E560ECDCE05E08
:10E710000000E6D5E054E700454C45415645BDE0D4
:10E720003FE05EE2FFE4F6E05EE2BCE560ECDCE0E8
:10E730007AE56FE6D5E054E71807454E444C4F4F55
:10E7400050BDE03FE560E56FE6EBE085E2CBE756E4
:10E75000E64DE2BCE748E054E739444C4F4F50BD2A
:10E76000E03FE05EE30CE741E054E75A452B4C4FB5
:10E770004F50BDE03FE05EE330E741E054E76C041A
:10E7800043454C4CBDE5F70002E77F02424CBDE536
:10E79000F70020E78B0754494253495A45BDE5F736
:10E7A000007EE79503544942BDE625FF80E7A402B9
:10E7B0005530BDE6250000E7AF033E494EBDE625D6
:10E7C0000002E7B90442415345BDE6250004E7C411
:10E7D000055354415445BDE6250006E7D002445098
:10E7E000BDE6250008E7DD0727534F55524345BDD9
:10E7F000E625000AE7E7064C4154455354BDE6259B
:10E80000000EE7F6024850BDE6250010E804024C71
:10E8100050BDE6250012E80E025330BDE62501008A
:10E82000E81803504144BDE6250128E822024C3097
:10E83000BDE6250180E82D025230BDE6250200E844
:10E840003703533E44BDE03FE07AE261E054E841E3
:10E85000073F4E4547415445BDE03FE261E2CBE80A
:10E8600063E19FE054E85003414253BDE03FE07A4A
:10E87000E858E054E86707444E4547415445BDE039
:10E880003FE0A1E1D2E0A1E1D2E05E0001E17DE064
:10E8900054E876083F444E4547415445BDE03FE2C9
:10E8A00061E2CBE8A7E87EE054E893044441425398
:10E8B000BDE03FE07AE89CE054E8AB024D2ABDE0C1
:10E8C0003FEA01E1C3E0F1E0A1E86BE0A1E86BE31E
:10E8D0005AE0FCE89CE054E8BB06534D2F52454DEE
:10E8E000BDE03FEA01E1C3E0F1E0B0E0F1E86BE058
:10E8F000F1E8B0E0FCE393E0A1E0FCE858E0A1E03F
:10E90000FCE858E054E8D906464D2F4D4F44BDE091
:10E910003FE07AE0F1E8E0E07AE261E2CBE92DE085
:10E92000A1E0FCE174E0A1E1EEE2BCE931E0FCE051
:10E9300096E054E907012ABDE03FE8BEE096E054C6
:10E94000E935042F4D4F44BDE03FE0F1E845E0FCE0
:10E95000E90EE054E942012FBDE03FE947E0CCE099
:10E9600054E956034D4F44BDE03FE947E096E0547B
:10E97000E963052A2F4D4F44BDE03FE0F1E8BEE0DA
:10E98000FCE90EE054E972022A2FBDE03FE978E08D
:10E99000CCE054E987034D4158BDE03FEA01E285F0
:10E9A000E2CBE9A6E0A1E096E054E995034D494E9B
:10E9B000BDE03FEA01E291E2CBE9BDE0A1E096E0F3
:10E9C00054E9AC023240BDE03FE07AE4B6E15EE0FB
:10E9D000A1E15EE054E9C3023221BDE03FE0A1E0E5
:10E9E000B0E141E4B6E141E054E9D7053244524F89
:10E9F00050BDE03FE096E096E054E9EB0432445528
:10EA000050BDE03FE0B0E0B0E054E9FC05325357C0
:10EA10004150BDE03FE0BCE0F1E0BCE0FCE054EA86
:10EA20000C05324F564552BDE03FE0F1E0F1EA01FE
:10EA3000E0FCE0FCEA12E054EA2105434F554E5455
:10EA4000BDE03FE07AE4CFE0A1E169E054EA3A02B8
:10EA50004352BDE03FE05E000DE031E05E000AE0C1
:10EA600031E054EA4F055350414345BDE03FE78E46
:10EA7000E031E054EA6506535041434553BDE03F61
:10EA8000E07AE2CBEA8EEA6BE1EEE2BCEA80E09665
:10EA9000E054EA7604554D494EBDE03FEA01E2AB51
:10EAA000E2CBEAA6E0A1E096E054EA9404554D4199
:10EAB00058BDE03FEA01E29EE2CBEABEE0A1E0966B
:10EAC000E054EAAC06414343455054BDE03FE0B05A
:10EAD000E174E1EEE0B0E006E07AE05E000DE2799C
:10EAE000E2CBEB12E07AE031E07AE05E0008E26C23
:10EAF000E2CBEB04E096E1EEE0F1E0B0E0FCEAB15D
:10EB0000E2BCEB0EE0B0E150E1E4E0B0EA99E2BC37
:10EB1000EAD6E096E0CCE0A1E18DE054EAC40454EA
:10EB2000595045BDE03FE085E2CBEB42E0B0E174F7
:10EB3000E0A1E2E5E340E169E031E30CEB34E2BC63
:10EB4000EB44E096E054EB1E0428532229BDE03F3D
:10EB5000E0FCEA40EA01E174E4ACE0F1E054EB48A7
:10EB6000425322BDE03FE05EEB4DE4F6E05E002262
:10EB7000ED6FE169E1E4E4A2ECEDE054EB60422EDC
:10EB800022BDE03FEB63E05EEB23E4F6E054EB7E76
:10EB90000655442F4D4F44BDE03FE0F1E05E0000DC
:10EBA000E107E393E0BCE0BCE0FCE393E0BCE054AD
:10EBB000EB900355442ABDE03FE07AE0F1E35AE0F0
:10EBC00096E0A1E0FCE35AE0BCE174E054EBB2044F
:10EBD000484F4C44BDE03FE05EFFFFE807E20AE833
:10EBE00007E15EE150E054EBCF023C23BDE03FE89B
:10EBF00026E807E141E054EBE9063E444947495421
:10EC0000BDE03FE07AE05E0009E291E05E0007E1EE
:10EC1000ACE174E05E0030E174E054EBF90123BD37
:10EC2000E03FE7C9E15EEB97E0BCEC00EBD4E054D9
:10EC3000EC1D022353BDE03FEC1FEA01E1B7E24DBA
:10EC4000E2CBEC38E054EC3202233EBDE03FE9F188
:10EC5000E807E15EE826E0B0E18DE054EC480453BB
:10EC600049474EBDE03FE261E2CBEC72E05E002D31
:10EC7000EBD4E054EC5E02552EBDE03FEBECE05EE1
:10EC80000000EC35EC4BEB23EA6BE054EC76012E04
:10EC9000BDE03FEBECE07AE86BE05E0000EC35E0D5
:10ECA000BCEC63EC4BEB23EA6BE054EC8E07444581
:10ECB00043494D414CBDE03FE05E000AE7C9E141F8
:10ECC000E054ECAD03484558BDE03FE05E0010E77E
:10ECD000C9E141E054ECC40448455245BDE03FE77A
:10ECE000E0E15EE054ECD705414C4C4F54BDE03FB1
:10ECF000E7E0E20AE054ECE7012CBDE03FECDCE1A8
:10ED000041E05E0001E4C3ECEDE054ECF802432C7A
:10ED1000BDE03FECDCE150E05E0001E4DCECEDE066
:10ED200054ED0D06534F55524345BDE03FE7EFE923
:10ED3000C6E054ED23072F535452494E47BDE03FE0
:10ED4000E0BCE0B0E174E0BCE0BCE18DE054ED3546
:10ED5000083E434F554E544544BDE03FEA01E15063
:10ED6000E4CFE0A1E418E054ED5004574F5244BD05
:10ED7000E03FE07AED2AE7BDE15EED3DE07AE0F1CB
:10ED8000E0BCE46BE0B0E0F1E0BCE485E07AE2CB2B
:10ED9000ED94E1EEE0FCE0FCE0BCE18DE7BDE20AD1
:10EDA000E0D7E18DECDCED59ECDCE78EE0B0EA4039
:10EDB000E174E150E054ED6A074E46413E4C464155
:10EDC000BDE03FE05E0002E18DE054EDB8074E4645
:10EDD000413E434641BDE03FEA40E05E003FE1ACDA
:10EDE000E174E054EDCD06494D4D45443FBDE03F53
:10EDF000E169E05E0040E1ACE054EDE60446494ED6
:10EE000044BDE03FE7FDE15EEA01E169E05E00BF8D
:10EE1000E1ACE0A1E169E26CE2CBEE30EA01E4CFE3
:10EE2000E0A1E07AE4CFE0A1E169E3E7E2BCEE34FF
:10EE3000E05E0001E07AE2CBEE42E096EDC0E15EFA
:10EE4000E07AE24DE2CBEE08E07AE2CBEE60E0CC95
:10EE5000E07AEDD5E0A1EDEDE24DE05E0001E1B735
:10EE6000E054EDFC474C49544552414CBDE03FE76E
:10EE7000D6E15EE2CBEE7FE05EE05EE4F6ECFAE047
:10EE800054EE640644494749543FBDE03FE07AE010
:10EE90005E0039E291E05E0100E1ACE174E07AE00D
:10EEA0005E0140E291E05E0107E1ACE18DE05E00D1
:10EEB00030E18DE07AE7C9E15EE29EE054EE830541
:10EEC0003F5349474EBDE03FE0B0E169E05E002CB2
:10EED000E18DE07AE86BE05E0001E26CE1ACE07AA3
:10EEE000E2CBEEF0E1E4E0F1E05E0001ED3DE0FCBC
:10EEF000E054EEBF073E4E554D424552BDE03FE067
:10EF00007AE2CBEF2FE0B0E169EE8AE24DE2CBEF9F
:10EF100015E096E054E0F1EA12E7C9E15EEBB6E0F5
:10EF2000FCE17DEA12E05E0001ED3DE2BCEEFFE0B7
:10EF300054EEF4073F4E554D424552BDE03FE07A56
:10EF4000E05E0000E05E0000E0BCEA40EEC5E0F1FB
:10EF5000EEFCE2CBEF64E0FCE9F1E9F1E05E0000F9
:10EF6000E2BCEF74E9F1E0CCE0FCE2CBEF70E19FB2
:10EF7000E05EFFFFE054EF3309494E5445525052D2
:10EF80004554BDE03FE7EFE9DAE05E0000E7BDE1B0
:10EF900041E78EED6FE07AE169E2CBEFDDEE01E073
:10EFA00085E2CBEFBFE1E4E7D6E15EE24DE1B7E217
:10EFB000CBEFB9E06EE2BCEFBBE4F6E2BCEFD9EF19
:10EFC0003BE2CBEFCBEE6CE2BCEFD9EA40EB23E0C7
:10EFD0005E003FE031EA52F059E2BCEF91E096E08A
:10EFE00054EF78084556414C55415445BDE03FE744
:10EFF000EFE9C6E0F1E0F1E7BDE15EE0F1EF82E0CC
:10F00000FCE7BDE141E0FCE0FCE7EFE9DAE054EFCA
:10F01000E30451554954BDE03FE830E811E141E8CF
:10F020003AE137E05E0000E7D6E141E7A8E07AE7A1
:10F030009DEACBEA6BEF82EA52E7D6E15EE24DE26F
:10F04000CBF04BEB4D034F4B20EB23E2BCF02BE01E
:10F0500054F0110541424F5254BDE03FE81BE11FFF
:10F06000F016E054F053063F41424F5254BDE03F8A
:10F07000E0BCE2CBF07AEB23F059E9F1E054F06622
:10F080004641424F525422BDE03FEB63E05EF06DDB
:10F09000E4F6E054F0800127BDE03FE78EED6FEE2F
:10F0A00001E24DEB4D013FF06DE054F09604434812
:10F0B0004152BDE03FE78EED6FE1E4E169E054F0DD
:10F0C000AD465B434841525DBDE03FF0B2E05EE0DB
:10F0D0005EE4F6ECFAE054F0C14128BDE03FE05EAA
:10F0E0000029ED6FE096E054F0D9415CBDE03FEDC2
:10F0F0002AE7BDE141E096E054F0EA06435245417B
:10F100005445BDE03FE7FDE15EECFAECDCE7FDE1F4
:10F1100041E78EED6FE169E1E4ECEDE05EE045E5AD
:10F120001AE054F0FB4752454355525345BDE03F6A
:10F13000E7FDE15EEDD5E4F6E054F125415BBDE08D
:10F140003FE05E0000E7D6E141E054F13C015DBDE7
:10F15000E03FE05EFFFFE7D6E141E054F14D0448B7
:10F16000494445BDE03FE7FDE15EE07AE169E05EEC
:10F170000080E1B7E0A1E150E054F15E065245564F
:10F1800045414CBDE03FE7FDE15EE07AE169E05ECC
:10F19000007FE1ACE0A1E150E054F17C09494D4D24
:10F1A000454449415445BDE03FE7FDE15EE07AE179
:10F1B0005EE05E0040E1B7E0A1E150E054F19C4325
:10F1C0005B275DBDE03FF098E05EE05EE4F6ECFAC0
:10F1D000E054F1BF48504F5354504F4E45BDE03FAF
:10F1E000E78EED6FEE01E07AE24DEB4D013FF06D01
:10F1F000E261E2CBF208E05EE05EE4F6ECFAE05EAB
:10F20000E4F6E4F6E2BCF20AE4F6E054F1D4065780
:10F21000495448494EBDE03FE0B0E18DE0F1E18D59
:10F22000E0FCE29EE054F20E044D4F5645BDE03F37
:10F23000E0F1EA01E0A1E07AE107E174F215E2CB46
:10F24000F24AE0FCE43DE2BCF24EE0FCE418E0549B
:10F25000F228054445505448BDE03FE113E81BE067
:10F26000A1E18DE201E054F2520C454E5649524F55
:10F270004E4D454E543FBDE03FE9F1E05E0000E0F9
:10F2800054F26905574F524453BDE03FE7FDE15E3C
:10F29000E07AEA40E05E003FE1ACEB23EA6BEDC0D0
:10F2A000E15EE07AE24DE2CBF290E096E054F28348
:10F2B000022E53BDE03FE113E81BE18DE2CBF2DA11
:10F2C000E113E81BE05E0002E18DE2E5E340E15E70
:10F2D000F383E05EFFFEE330F2CCE054F2B004438F
:10F2E0004F4C44BDE03FF8AEE7B2F8A1E418EB4D57
:10F2F0001F363830392043616D656C466F72746813
:10F300002076312E30202032352041707220393560
:10F31000EB23EA52F059E054F2DE022E48BDE03F02
:10F32000E05E000FE1ACE05E0030E174E07AE05EA8
:10F330000039E291E2CBF33EE05E0007E174E03198
:10F34000E054F31A032E4848BDE03FE07AE201E2C0
:10F3500001E201E201F31DF31DE054F344052E48E0
:10F36000484848BDE03FE07AE201E201E201E20103
:10F37000E201E201E201E201F348F348E054F35D07
:10F3800002482EBDE03FF363EA6BE054F380022EA7
:10F3900042BDE03FE07AE169F348EA6BE1E4E05422
:10F3A000F38E022E41BDE03FE07AE169E07AE05E53
:10F3B0000020E05E007FF215E24DE2CBF3C4E09660
:10F3C000E05E002EE031E1E4E054F3A20444554D48
:10F3D00050BDE03FE05E0000E2E5EA52E07AF383F0
:10F3E000EA6BE07AF391F391F391F391F391F39156
:10F3F000F391F391EA6BF391F391F391F391F3911C
:10F40000F391F391F391E096EA6BF3A5F3A5F3A5DD
:10F41000F3A5F3A5F3A5F3A5F3A5F3A5F3A5F3A52C
:10F42000F3A5F3A5F3A5F3A5F3A5E05E0010E33083
:10F43000F3DAE096E054F3CC0453545550BDE03F6A
:10F44000EA01E0A1E2E5E340E07AE141E784E3306C
:10F45000F446E054F438055354555049BDE03FEAB2
:10F4600001E0A1E2E5E340E19FE340E141E784E31D
:10F4700030F465E054F456055453545550BDE03F04
:10F48000EA01E0A1E2E5E340E07AE15EE279E2CB85
:10F49000F4A2EB4D07204572726F7240EB23E340FC
:10F4A000EC79E784E330F486E054F477065453545F
:10F4B000555049BDE03FEA01E0A1E2E5E340E19FAC
:10F4C000E340E15EE279E2CBF4DAEB4D07204572EE
:10F4D000726F7240EB23E340EC79E784E330F4BCD5
:10F4E000E054F4AC0450415353BDE03FF43DF47D8F
:10F4F000F45CF4B3E054F4E406504153534553BD77
:10F50000E03FE05E0000E2E5EB4D012EEB23F4E985
:10F51000E30CF508E054F4F80653444C424132BD84
:10F52000E03FE05EFFDCE150E054F5180753444C47
:10F5300042413130BDE03FE07AE05E00FFE1ACE007
:10F540005EFFDAE150E05E0008E238E05EFFDBE1FA
:10F5500050E054F52C065344494E4954BDE03FE079
:10F560005E0000F51FE05EFFD9E07AE169E05E0031
:10F5700080E26CE2CBF569E096E054F55504534423
:10F580005244BDE03FE0A1F534E05E0000E05EFFE4
:10F59000D9E150E07AE05E0200E174E0A1E2E5E04A
:10F5A0005EFFD9E07AE169E05E00E0E26CE2CBF573
:10F5B000A3E096E05EFFD8E169E340E150E30CF59B
:10F5C0009FE054F57D0453445752BDE03FE0A1F560
:10F5D00034E05E0001E05EFFD9E150E07AE05E02D7
:10F5E00000E174E0A1E2E5E05EFFD9E07AE169E0E4
:10F5F0005E00A0E26CE2CBF5EBE096E340E169E06F
:10F600005EFFD8E150E30CF5E7E054F5C50553443F
:10F6100052446EBDE03FE05E0000E2E5EA01F582A3
:10F62000E05E0200E174E0A1E1E4E0A1E30CF61C7D
:10F63000E9F1E054F60D0753445244323536BDE04B
:10F640003FE0A1F534E05E0000E05EFFD9E150E06C
:10F650007AE05E0100E174E0A1E2E5E05EFFD9E05E
:10F660007AE169E05E00E0E26CE2CBF65FE096E012
:10F670005EFFD8E169E340E150E30CF65BE05E0138
:10F6800000E05E0000E2E5E05EFFD9E07AE169E0DB
:10F690005E00E0E26CE2CBF68BE096E05EFFD8E144
:10F6A00069E096E30CF687E054F63608534452447A
:10F6B0003235366EBDE03FE05E0000E2E5EA01F67D
:10F6C0003EE05E0100E174E0A1E1E4E0A1E30CF6BC
:10F6D000BDE9F1E054F6AB03706976BDE03FE05E52
:10F6E000004FE05E1000E150E05E1F8BE05E100115
:10F6F000E141E05E86A0E05E1003E141E05E00B71C
:10F70000E05E1005E150E05EFFDEE05E1006E141E4
:10F71000E05E1000E06EE054F6D7055049564F54B5
:10F72000BDE03FE05E007EE05E1008E150E05E106C
:10F7300009E141F6DBE054F71A085049564F54529C
:10F740005354BDE03FE05E6E9FE05E1008E141E093
:10F750005EFFFEE05E100AE141F6DBE054F7390699
:10F760004D4D554D4150BDE03FE05E0010E05E0064
:10F7700000E2E5E340E07AE05E0008E21FE1B7E086
:10F780005EFFDEE141E30CF773E05E0020E05EFF28
:10F79000DEE150E054F75F064546544F4344BDE078
:10F7A0003FE05E2607E05EFFDEE141E054F79706AA
:10F7B0004344544F4344BDE03FE05E2606E05EFF15
:10F7C000DEE141E054F7AF054355424958BDE03F03
:10F7D000F766F79EE05E0002F51FE05E0000E05E67
:10F7E000D800E05E0004F613E05E0000F51FF7B6F7
:10F7F000F742E054F7C7054241534943BDE03FF7A4
:10F8000066F79EE05E0002F51FE05E1000E05EC05D
:10F8100000E05E0010F613E05E0000F51FF7B6E0B2
:10F820005E2787E05EFFDEE141F742E054F7F60431
:10F83000464C4558BDE03FF766E05E0002F51FE02C
:10F840005E2000E05EC100E05E0001F613E05E00B5
:10F8500000F51FE05EC100F720E054F82F074E4985
:10F8600054524F5339BDE03FE05E0002F51FE05EA9
:10F8700084C8E05E2600E05E0012F6B4E05E0000A0
:10F88000F51FE05E2602F720E05486061F8B10CE9F
:10F890000700CE08007EF2E33BF85D0523494E49A0
:10F8A00054BDE5F70012F89B0555494E4954BDE09B
:10F8B0004500000000000A0000000000000000F801
:10F8C000A8000020202020202020202020202020F0
:10F8D0002020202020202020202020202020202028
:10F8E0002020202020202020202020202020202018
:10F8F0002020202020202020202020202020202008
:10F9000020202020202020202020202020202020F7
:10FFF000F898F898F898F898F898F898F898F88A8F
:00000001FF
