:100000000000034B45593406F6FFD0C40127F9F62A
:10001000FFD14F6EB1E002044B45593F34064FF615
:10002000FFD0C4012702C6FF6EB1E01704454D4959
:1000300054B6FFD0840227F9F7FFD135066EB136EA
:100040002035206EB1351034061F106EB1E02C043F
:100050004558495437206EB1E04F034C495434069B
:10006000ECA16EB1E05A07455845435554451F0170
:1000700035066E84E0660344555034066EB1E07672
:10008000043F44555010830000270234066EB1E04F
:10009000800444524F5035066EB1E09104535741ED
:1000A00050AEE4EDE41F106EB1E09C044F56455293
:1000B0003406EC626EB1E0AB03524F54AEE4EDE4B3
:1000C000EC62AF626EB1E0B8034E495032626EB17D
:1000D000E0C8045455434BAEE4EDE434106EB1E097
:1000E000D2045049434B5849ECEB6EB1E0E1023E7B
:1000F00052360635066EB1E0EE02523E3406370641
:100100006EB1E0F90252403406ECC46EB1E1040372
:1001100053504034061F406EB1E10F035350211F6E
:100120000435066EB1E11B0352504034061F306E99
:10013000B1E127035250211F0335066EB1E13301AF
:10014000211F013506ED8435066EB1E13F024321E2
:100150001F013506E78435066EB1E14D01401F01F0
:10016000EC846EB1E15C0243401F01E6844F6EB146
:10017000E166012BE3E16EB1E172024D2BE362ED2A
:10018000623506C90089006EB1E17A012DA3E14311
:1001900053C300016EB1E18B064E454741544543C0
:1001A00053C300016EB1E19803414E44A4E0E4E082
:1001B0006EB1E1A8024F52AAE0EAE06EB1E1B403E9
:1001C000584F52A8E0E8E06EB1E1BF06494E5645EF
:1001D000525443536EB1E1CB023E3C1E896EB1E1F5
:1001E000D802312BC300016EB1E1E102312D830051
:1001F000016EB1E1EB02322A58496EB1E1F50232EB
:100200002F47566EB1E1FE022B211F013506E38414
:10021000ED8435066EB1E207064C53484946541F3B
:10022000013506308427065849301F26FA6EB1E2A0
:1002300018065253484946541F0135063084270694
:100240004456301F26FA6EB1E23102303D10830071
:10025000002605CCFFFF6EB14F5F6EB1E24A02305F
:100260003C4D2BEF4F5F6EB1E25E013DA3E127E312
:100270004F5F6EB1E26A023C3EA3E126D64F5F6E4D
:10028000B1E276013CA3E12ECA4F5F6EB1E2830179
:100290003EA3E12DBE4F5F6EB1E28F02553CA3E15C
:1002A00022B14F5F6EB1E29B02553EA3E125A44F00
:1002B0005F6EB1E2A8064252414E434810AEA46EB2
:1002C000B1E2B5073F4252414E4348108300002639
:1002D00007350610AEA46EB1350631226EB1E2C309
:1002E0000428444F291F01CC8000A3E13606308B3F
:1002F000361035066EB1E2E006554E4C4F4F503386
:10030000446EB1E2F806284C4F4F50293406ECC435
:10031000C300012909EDC410AEA435066EB1312227
:10032000334435066EB1E30507282B4C4F4F502957
:10033000E3C428E13122334435066EB1E328014994
:100340003406ECC4A3426EB1E33E014A3406EC44E9
:10035000A3466EB1E34A03554D2A3416A665E661FD
:100360003DED62A664E6613DEB628900ED61A66544
:10037000E6E43DE361ED614F49E6E4A7E4A6643DB0
:10038000E3E4AE623264AFE46EB1E35606554D2F3E
:100390004D4F4434068E0010686569646963696274
:1003A000EC622408A3E4ED621CFE2006A3E425020F
:1003B000ED6269656964301F26E2EC644353AE6206
:1003C000AF6432646EB1E38C0446494C4C36203540
:1003D000308C00002706E7A0301F26FA35063720AC
:1003E0006EB1E3C802533DE362AE6210AF6210AE7D
:1003F000E4EDE45FACE42712A680A0A0270AC200C7
:100400001F98CA0135306EB120EA1F9835306EB1A1
:10041000E3E405434D4F5645E362AE6210AF621010
:10042000AEE4EDE4ACE42706E680E7A020F6353044
:1004300035066EB1E41206434D4F56453EAE62306E
:100440008B10AF6210AEE431AB10ACE42706E6824D
:10045000E7A220F5353035066EB1313F34201F104C
:1004600037206EB1E43604534B4950362035308C7A
:1004700000002708E1A026E2301F26F820DEE4660F
:10048000045343414E362035308C00002708E1A04C
:1004900027C8301F26F820C4E48007414C49474E46
:1004A00045446EB1E49A05414C49474E6EB1E4A60D
:1004B0000543454C4C2BC300026EB1E4B0054345E7
:1004C0004C4C5358496EB1E4BD05434841522BC3CF
:1004D00000016EB1E4C90543484152536EB1E4D600
:1004E000053E424F4459C300036EB1E4E008434F58
:1004F0004D50494C452CBDE03FED09E054E4ED037F
:10050000214346BDE03FE05E00BDE0B0E150E1E4E4
:10051000E141E054E4FF032C4346BDE03FECEBE552
:1005200003E05E0003ECFCE054E5160621434F4C6B
:100530004F4EBDE03FE05EFFFDECFCE05EE03FE5DE
:100540001AE054E52B052C45584954BDE03FE05EC8
:10055000E054E4F6E054E545072C4252414E43484E
:10056000BDE03FED09E054E558052C44455354BD2A
:10057000E03FED09E054E569052144455354BDE0F1
:100580003FE141E05436203520351034061F106E0F
:10059000B1E5780728444F45533E29BDE03FE0FCD4
:1005A000E80CE15EEDE4E503E054E59345444F4596
:1005B000533EBDE03FE05EE59BE4F6E05EE585E5A9
:1005C0001AE054E5AC013ABDE03FF111F172F15E81
:1005D000E532E054E5C5413BBDE03FF192E54BF12A
:1005E0004DE054E5D608434F4E5354414E54BDE0C0
:1005F0003FF111ED09E59B35103406EC846EB1E551
:10060000E5085641524941424C45BDE03FF111E7F2
:1006100084ECFCE054E6010455534552BDE03FF143
:1006200011ED09E59B351034061FB85FE3846EB108
:10063000E617424946BDE03FE05EE2CBE560ECEB09
:10064000E07AE56FE054E632445448454EBDE03F61
:10065000ECEBE0A1E57EE054E64844454C5345BD53
:10066000E03FE05EE2BCE560ECEBE07AE56FE0A144
:10067000E64DE054E65A45424547494EBDE03FEC61
:10068000EBE054E67645554E54494CBDE03FE05E04
:10069000E2CBE560E56FE054E68545414741494ED0
:1006A000BDE03FE05EE2BCE560E56FE054E69A4500
:1006B0005748494C45BDE03FE635E054E6AF465269
:1006C0004550454154BDE03FE0A1E6A0E64DE05471
:1006D000E6BE023E4CBDE03FE784E820E20AE820A7
:1006E000E15EE141E054E6D2024C3EBDE03FE8204D
:1006F000E15EE15EE784E19FE820E20AE054E6E89B
:1007000042444FBDE03FE05EE2E5E560ECEBE05ED9
:100710000000E6D5E054E700454C45415645BDE0B4
:100720003FE05EE2FFE4F6E05EE2BCE560ECEBE0B9
:100730007AE56FE6D5E054E71807454E444C4F4F35
:1007400050BDE03FE560E56FE6EBE085E2CBE756C4
:10075000E64DE2BCE748E054E739444C4F4F50BD0A
:10076000E03FE05EE30CE741E054E75A452B4C4F95
:100770004F50BDE03FE05EE330E741E054E76C04FA
:1007800043454C4CBDE5F70002E77F02424CBDE516
:10079000F70020E78B0754494253495A45BDE5F716
:1007A000007EE79503544942BDE625FF80E7A40299
:1007B0005530BDE6250000E7AF033E494EBDE625B6
:1007C0000002E7B90442415345BDE6250004E7C4F1
:1007D000055354415445BDE6250006E7D002445078
:1007E000BDE6250008E7DD0727534F55524345BDB9
:1007F000E625000AE7E707424C4B41445253BDE669
:1008000025000EE7F6064C4154455354BDE625003D
:1008100012E805024850BDE6250014E813024C50CA
:10082000BDE6250016E81D025330BDE6250100E8AF
:100830002703504144BDE6250128E831024C30BD74
:10084000E6250180E83C025230BDE6250200E8467C
:1008500003533E44BDE03FE07AE261E054E85007D4
:100860003F4E4547415445BDE03FE261E2CBE8726F
:10087000E19FE054E85F03414253BDE03FE07AE886
:1008800067E054E87607444E4547415445BDE03F94
:10089000E0A1E1D2E0A1E1D2E05E0001E17DE0541F
:1008A000E885083F444E4547415445BDE03FE2617D
:1008B000E2CBE8B6E88DE054E8A20444414253BDDF
:1008C000E03FE07AE8ABE054E8BA024D2ABDE03FF1
:1008D000EA10E1C3E0F1E0A1E87AE0A1E87AE35AA6
:1008E000E0FCE8ABE054E8CA06534D2F52454DBD3D
:1008F000E03FEA10E1C3E0F1E0B0E0F1E87AE0F1D6
:10090000E8BFE0FCE393E0A1E0FCE867E0A1E0FCE5
:10091000E867E054E8E806464D2F4D4F44BDE03F00
:10092000E07AE0F1E8EFE07AE261E2CBE93CE0A1D5
:10093000E0FCE174E0A1E1EEE2BCE940E0FCE0961D
:10094000E054E916012ABDE03FE8CDE096E054E925
:1009500044042F4D4F44BDE03FE0F1E854E0FCE992
:100960001DE054E951012FBDE03FE956E0CCE054D1
:10097000E965034D4F44BDE03FE956E096E054E998
:1009800072052A2F4D4F44BDE03FE0F1E8CDE0FC79
:10099000E91DE054E981022A2FBDE03FE987E0CC60
:1009A000E054E996034D4158BDE03FEA10E285E28C
:1009B000CBE9B5E0A1E096E054E9A4034D494EBD72
:1009C000E03FEA10E291E2CBE9CCE0A1E096E0540E
:1009D000E9BB023240BDE03FE07AE4B6E15EE0A16F
:1009E000E15EE054E9D2023221BDE03FE0A1E0B097
:1009F000E141E4B6E141E054E9E6053244524F50AA
:100A0000BDE03FE096E096E054E9FA0432445550E8
:100A1000BDE03FE0B0E0B0E054EA0B05325357418F
:100A200050BDE03FE0BCE0F1E0BCE0FCE054EA1B7C
:100A300005324F564552BDE03FE0F1E0F1EA10E0EB
:100A4000FCE0FCEA21E054EA3005434F554E54BD2A
:100A5000E03FE07AE4CFE0A1E169E054EA490243F3
:100A600052BDE03FE05E000DE031E05E000AE031A3
:100A7000E054EA5E055350414345BDE03FE78EE058
:100A800031E054EA7406535041434553BDE03FE022
:100A90007AE2CBEA9DEA7AE1EEE2BCEA8FE096E008
:100AA00054EA8504554D494EBDE03FEA10E2ABE201
:100AB000CBEAB5E0A1E096E054EAA304554D4158D5
:100AC000BDE03FEA10E29EE2CBEACDE0A1E096E095
:100AD00054EABB06414343455054BDE03FE0B0E11A
:100AE00074E1EEE0B0E006E07AE05E000DE279E26B
:100AF000CBEB21E07AE031E07AE05E0008E26CE2E4
:100B0000CBEB13E096E1EEE0F1E0B0E0FCEAC0E20E
:100B1000BCEB1DE0B0E150E1E4E0B0EAA8E2BCEAE1
:100B2000E5E096E0CCE0A1E18DE054EAD30454592D
:100B30005045BDE03FE085E2CBEB51E0B0E174E031
:100B4000A1E2E5E340E169E031E30CEB43E2BCEB19
:100B500053E096E054EB2D0428532229BDE03FE0FA
:100B6000FCEA4FEA10E174E4ACE0F1E054EB5742E8
:100B70005322BDE03FE05EEB5CE4F6E05E0022ED78
:100B80007EE169E1E4E4A2ECFCE054EB6F422E224A
:100B9000BDE03FEB72E05EEB32E4F6E054EB8D0635
:100BA00055442F4D4F44BDE03FE0F1E05E0000E1D1
:100BB00007E393E0BCE0BCE0FCE393E0BCE054EB73
:100BC0009F0355442ABDE03FE07AE0F1E35AE09606
:100BD000E0A1E0FCE35AE0BCE174E054EBC104485E
:100BE0004F4C44BDE03FE05EFFFFE816E20AE81626
:100BF000E15EE150E054EBDE023C23BDE03FE8352E
:100C0000E816E141E054EBF8063E4449474954BD3B
:100C1000E03FE07AE05E0009E291E05E0007E1ACCF
:100C2000E174E05E0030E174E054EC080123BDE0C3
:100C30003FE7C9E15EEBA6E0BCEC0FEBE3E054EC70
:100C40002C022353BDE03FEC2EEA10E1B7E24DE267
:100C5000CBEC47E054EC4102233EBDE03FEA00E824
:100C600016E15EE835E0B0E18DE054EC57045349FD
:100C7000474EBDE03FE261E2CBEC81E05E002DEB50
:100C8000E3E054EC6D02552EBDE03FEBFBE05E006F
:100C900000EC44EC5AEB32EA7AE054EC85012EBDCC
:100CA000E03FEBFBE07AE87AE05E0000EC44E0BC79
:100CB000EC72EC5AEB32EA7AE054EC9D074445437F
:100CC000494D414CBDE03FE05E000AE7C9E141E02B
:100CD00054ECBC03484558BDE03FE05E0010E7C956
:100CE000E141E054ECD30448455245BDE03FE7E024
:100CF000E15EE054ECE605414C4C4F54BDE03FE76B
:100D0000E0E20AE054ECF6012CBDE03FECEBE141FF
:100D1000E05E0001E4C3ECFCE054ED0702432CBDAF
:100D2000E03FECEBE150E05E0001E4DCECFCE05481
:100D3000ED1C06534F55524345BDE03FE7EFE9D563
:100D4000E054ED32072F535452494E47BDE03FE087
:100D5000BCE0B0E174E0BCE0BCE18DE054ED4408DF
:100D60003E434F554E544544BDE03FEA10E150E448
:100D7000CFE0A1E418E054ED5F04574F5244BDE0CA
:100D80003FE07AED39E7BDE15EED4CE07AE0F1E07D
:100D9000BCE46BE0B0E0F1E0BCE485E07AE2CBEDEE
:100DA000A3E1EEE0FCE0FCE0BCE18DE7BDE20AE09F
:100DB000D7E18DECEBED68ECEBE78EE0B0EA4FE1CC
:100DC00074E150E054ED79074E46413E4C4641BD3A
:100DD000E03FE05E0002E18DE054EDC7074E464182
:100DE0003E434641BDE03FEA4FE05E003FE1ACE1FB
:100DF00074E054EDDC06494D4D45443FBDE03FE114
:100E000069E05E0040E1ACE054EDF50446494E4433
:100E1000BDE03FE80CE15EEA10E169E05E00BFE1A1
:100E2000ACE0A1E169E26CE2CBEE3FEA10E4CFE096
:100E3000A1E07AE4CFE0A1E169E3E7E2BCEE43E0C0
:100E40005E0001E07AE2CBEE51E096EDCFE15EE0AC
:100E50007AE24DE2CBEE17E07AE2CBEE6FE0CCE047
:100E60007AEDE4E0A1EDFCE24DE05E0001E1B7E0E7
:100E700054EE0B474C49544552414CBDE03FE7D638
:100E8000E15EE2CBEE8EE05EE05EE4F6ED09E0547A
:100E9000EE730644494749543FBDE03FE07AE05EC7
:100EA0000039E291E05E0100E1ACE174E07AE05EDD
:100EB0000140E291E05E0107E1ACE18DE05E0030CF
:100EC000E18DE07AE7C9E15EE29EE054EE92053FF3
:100ED0005349474EBDE03FE0B0E169E05E002CE1E0
:100EE0008DE07AE87AE05E0001E26CE1ACE07AE263
:100EF000CBEEFFE1E4E0F1E05E0001ED4CE0FCE070
:100F000054EECE073E4E554D424552BDE03FE07A8D
:100F1000E2CBEF3EE0B0E169EE99E24DE2CBEF24A7
:100F2000E096E054E0F1EA21E7C9E15EEBC5E0FCC0
:100F3000E17DEA21E05E0001ED4CE2BCEF0EE05401
:100F4000EF03073F4E554D424552BDE03FE07AE08A
:100F50005E0000E05E0000E0BCEA4FEED4E0F1EF9E
:100F60000BE2CBEF73E0FCEA00EA00E05E0000E297
:100F7000BCEF83EA00E0CCE0FCE2CBEF7FE19FE056
:100F80005EFFFFE054EF4209494E5445525052452E
:100F900054BDE03FE7EFE9E9E05E0000E7BDE14175
:100FA000E78EED7EE07AE169E2CBEFECEE10E085D2
:100FB000E2CBEFCEE1E4E7D6E15EE24DE1B7E2CB92
:100FC000EFC8E06EE2BCEFCAE4F6E2BCEFE8EF4A3D
:100FD000E2CBEFDAEE7BE2BCEFE8EA4FEB32E05E29
:100FE000003FE031EA61F068E2BCEFA0E096E05437
:100FF000EF87084556414C55415445BDE03FE7EF6A
:10100000E9D5E0F1E0F1E7BDE15EE0F1EF91E0FC70
:10101000E7BDE141E0FCE0FCE7EFE9E9E054EFF295
:101020000451554954BDE03FE83FE820E141E8491B
:10103000E137E05E0000E7D6E141E7A8E07AE79D0E
:10104000EADAEA7AEF91EA61E7D6E15EE24DE2CBD5
:10105000F05AEB5C034F4B20EB32E2BCF03AE05429
:10106000F0200541424F5254BDE03FE82AE11FF015
:1010700025E054F062063F41424F5254BDE03FE04C
:10108000BCE2CBF089EB32F068EA00E054F0754640
:1010900041424F525422BDE03FEB72E05EF07CE4EF
:1010A000F6E054F08F0127BDE03FE78EED7EEE10B5
:1010B000E24DEB5C013FF07CE054F0A50443484175
:1010C00052BDE03FE78EED7EE1E4E169E054F0BC23
:1010D000465B434841525DBDE03FF0C1E05EE05EEB
:1010E000E4F6ED09E054F0D04128BDE03FE05E00B9
:1010F00029ED7EE096E054F0E8415CBDE03FED393B
:10110000E7BDE141E096E054F0F906435245415411
:1011100045BDE03FE80CE15EED09ECEBE80CE14198
:10112000E78EED7EE169E1E4ECFCE05EE045E51A86
:10113000E054F10A4752454355525345BDE03FE85C
:101140000CE15EEDE4E4F6E054F134415BBDE03FD8
:10115000E05E0000E7D6E141E054F14B015DBDE007
:101160003FE05EFFFFE7D6E141E054F15C0448490F
:101170004445BDE03FE80CE15EE07AE169E05E00F5
:1011800080E1B7E0A1E150E054F16D0652455645CB
:10119000414CBDE03FE80CE15EE07AE169E05E00D1
:1011A0007FE1ACE0A1E150E054F18B09494D4D45A0
:1011B0004449415445BDE03FE80CE15EE07AE15E20
:1011C000E05E0040E1B7E0A1E150E054F1AB435BE9
:1011D000275DBDE03FF0A7E05EE05EE4F6ED09E0EC
:1011E00054F1CE48504F5354504F4E45BDE03FE769
:1011F0008EED7EEE10E07AE24DEB5C013FF07CE29A
:1012000061E2CBF217E05EE05EE4F6ED09E05EE459
:10121000F6E4F6E2BCF219E4F6E054F1E3065749CD
:101220005448494EBDE03FE0B0E18DE0F1E18DE092
:10123000FCE29EE054F21D044D4F5645BDE03FE0F8
:10124000F1EA10E0A1E07AE107E174F224E2CBF2E6
:1012500059E0FCE43DE2BCF25DE0FCE418E054F24D
:1012600037054445505448BDE03FE113E82AE0A16A
:10127000E18DE201E054F2610C454E5649524F4E69
:101280004D454E543FBDE03FEA00E05E0000E054B3
:10129000F27805574F524453BDE03FE80CE15EE061
:1012A0007AEA4FE05E003FE1ACEB32EA7AEDCFE163
:1012B0005EE07AE24DE2CBF29FE096E054F29202D9
:1012C0002E53BDE03FE113E82AE18DE2CBF2E9E1E4
:1012D00013E82AE05E0002E18DE2E5E340E15EF31F
:1012E000C7E05EFFFEE330F2DBE054F2BF064D41A3
:1012F000524B4552BDE03FECEBE80CE15EF111EDE5
:1013000009ED09E59BBDE585E07AE15EE0A1E05EDF
:101310000002E174E15EE7E0E141E80CE141E05404
:10132000F2ED04434F4C44BDE03FFC71E7B2FC6476
:10133000E418EB5C1F363830392043616D656C462C
:101340006F7274682076312E302020323520417043
:1013500072203935EB32EA61F068E054F322022E54
:1013600048BDE03FE05E000FE1ACE05E0030E174BC
:10137000E07AE05E0039E291E2CBF382E05E0007C2
:10138000E174E031E054F35E032E4848BDE03FE0F5
:101390007AE201E201E201E201F361F361E054F378
:1013A00088052E48484848BDE03FE07AE201E20166
:1013B000E201E201E201E201E201E201F38CF38CDD
:1013C000E054F3A102482EBDE03FF3A7EA7AE054CF
:1013D000F3C4022E42BDE03FE07AE169F38CEA7A81
:1013E000E1E4E054F3D2022E41BDE03FE07AE1694E
:1013F000E07AE05E0020E05E007FF224E24DE2CB86
:10140000F408E096E05E002EE031E1E4E054F3E61B
:101410000444554D50BDE03FE05E0000E2E5EA6166
:10142000E07AF3C7EA7AE07AF3D5F3D5F3D5F3D5CA
:10143000F3D5F3D5F3D5F3D5EA7AF3D5F3D5F3D5D0
:10144000F3D5F3D5F3D5F3D5F3D5E096EA7AF3E9FE
:10145000F3E9F3E9F3E9F3E9F3E9F3E9F3E9F3E9AC
:10146000F3E9F3E9F3E9F3E9F3E9F3E9F3E9E05E3A
:101470000010E330F41EE096E054F4100453545589
:1014800050BDE03FEA10E0A1E2E5E340E07AE1414F
:10149000E784E330F48AE054F47C05535455504912
:1014A000BDE03FEA10E0A1E2E5E340E19FE340E177
:1014B00041E784E330F4A9E054F49A0554535455B9
:1014C00050BDE03FEA10E0A1E2E5E340E07AE15EF2
:1014D000E279E2CBF4E6EB5C07204572726F724072
:1014E000EB32E340EC88E784E330F4CAE054F4BB29
:1014F00006545354555049BDE03FEA10E0A1E2E5DF
:10150000E340E19FE340E15EE279E2CBF51EEB5C74
:1015100007204572726F7240EB32E340EC88E7843B
:10152000E330F500E054F4F00450415353BDE03F84
:10153000F481F4C1F4A0F4F7E054F52806504153C7
:10154000534553BDE03FE05E0000E2E5EB5C012E59
:10155000EB32F52DE30CF54CE054F53C0653444CCE
:10156000424132BDE03FE05EFFDCE150E054F55C1B
:101570000753444C42413130BDE03FE07AE05E0029
:10158000FFE1ACE05EFFDAE150E05E0008E238E047
:101590005EFFDBE150E054F57006534449444C458E
:1015A000BDE03FE05EFFD9E07AE169E05E0080E205
:1015B0006CE2CBF5A7E096E054F59904534452440D
:1015C000BDE03FE0A1F578F5A0E05E0000E05EFF41
:1015D000D9E150E07AE05E0200E174E0A1E2E5E0EA
:1015E0005EFFD9E07AE169E05E00E0E26CE2CBF513
:1015F000E3E096E05EFFD8E169E340E150E30CF5FB
:10160000DFE054F5BB0453445752BDE03FE0A1F581
:1016100078F5A0E05E0001E05EFFD9E150E07AE0FD
:101620005E0200E174E0A1E2E5E05EFFD9E07AE16C
:1016300069E05E00A0E26CE2CBF62DE096E340E1CB
:1016400069E05EFFD8E150E30CF629E054F60505A9
:10165000534452446EBDE03FE05E0000E2E5EA1014
:10166000F5C0E05E0200E174E0A1E1E4E0A1E30C7A
:10167000F65EEA00E054F64F0753445244323536E2
:10168000BDE03FE0A1F578F5A0E05E0000E05EFF80
:10169000D9E150E07AE05E0100E174E0A1E2E5E02A
:1016A0005EFFD9E07AE169E05E00E0E26CE2CBF651
:1016B000A3E096E05EFFD8E169E340E150E30CF679
:1016C0009FE05E0100E05E0000E2E5E05EFFD9E041
:1016D0007AE169E05E00E0E26CE2CBF6CFE096E012
:1016E0005EFFD8E169E096E30CF6CBE054F67808AB
:1016F000534452443235366EBDE03FE05E0000E2B6
:10170000E5EA10F680E05E0100E174E0A1E1E4E0CA
:10171000A1E30CF701EA00E054F6EF0553445752F9
:101720006EBDE03FE05E0000E2E5EA10F60AE05E32
:101730000200E174E0A1E1E4E0A1E30CF72AEA0091
:10174000E054F71B05534457525ABDE03FF578F576
:10175000A0E05E0001E05EFFD9E150E05E0200E043
:101760005E0000E2E5E05EFFD9E07AE169E05E005C
:10177000A0E26CE2CBF769E096E05E0000E05EFF7D
:10178000D8E150E30CF765E054F74403706976BD87
:10179000E03FE05E004FE05E1000E150E05E1F8B36
:1017A000E05E1001E141E05E86A0E05E1003E141F1
:1017B000E05E00B7E05E1005E150E05EFFDEE05E57
:1017C0001006E141E05E1000E06EE054F78B05503A
:1017D00049564F54BDE03FE05E007EE05E1008E1F8
:1017E00050E05E1009E141F78FE054F7CE08504910
:1017F000564F54525354BDE03FE05E6E9FE05E1082
:1018000008E141E05EFFFEE05E100AE141F78FE093
:1018100054F7ED064D4D554D4150BDE03FE05E00A3
:1018200010E05E0000E2E5E340E07AE05E0008E2FE
:101830001FE1B7E05EFFDEE141E30CF827E05E0068
:1018400020E05EFFDEE150E054F813064546544FB9
:101850004344BDE03FE05E2607E05EFFDEE141E09D
:1018600054F84B064344544F4344BDE03FE05E26EA
:1018700006E05EFFDEE141E054F86305435542496E
:1018800058BDE03FF81AF852E05E0002F563E05EF2
:101890000000E05ED800E05E0004F655E05E000067
:1018A000F563F86AF7F6E054F87B065344424F4F6D
:1018B00054BDE03FF81AF852E05E0002F563E05EC6
:1018C000C000E05E0010F655E05E0000F563F86AC7
:1018D000E05E2787E05EFFDEE141F7F6E054F8AA1C
:1018E000054241534943BDE03FE05E1000F8B1E0DE
:1018F00054F8E0075344464F525448BDE03FE05E81
:101900000FF0F8B1E054F8F3054255474759BDE0F0
:101910003FF81AF852E05E0002F563E05E1E00E058
:101920005EC400E05E000EF655E05E0000F563F870
:101930006AF7F6E054F90804464C4558BDE03FF814
:101940001AE05E0002F563E05E2000E05EC100F593
:10195000C0E05E0000F563E05EC100F7D4E054F93A
:1019600037074E4954524F5339BDE03FF81AF852E9
:10197000E05E0002F563E05E84C8E05E2600E05EA3
:101980000012F6F8E05E0000F563E05E0100E05E44
:10199000DFF2E141E05E0103E05EDFF4E141E05EA1
:1019A000010FE05EDFF6E141E05E010CE05EDFF892
:1019B000E141E05E0106E05EDFFAE141E05E01093F
:1019C000E05EDFFCE141F86AE05E2602F7D4E05415
:1019D000F96107424144424C4F42BDE03FEB5C0F8E
:1019E0004552524F522042414420424C4F4220EB3C
:1019F00032EB32EA61F068E054F9D2064241444DDC
:101A00004147BDE03FE07AE05E0006E174EB5C0434
:101A100043463039E3E7E2CBFA2BEB5C0C4D414710
:101A20004943204E554D424552F9DAE054F9FB0640
:101A300042414453495ABDE03FE07AE15EE0B0E004
:101A40005E0002E174E15EE26CE2CBFA5CEB5C0A00
:101A50005A45524F204259544553F9DAE054FA2F6F
:101A6000054241444C44BDE03FE07AE15EECEBE2EC
:101A700079E2CBFA83EB5C094C4F4144204144446A
:101A800052F9DAE054FA6004424C4F42BDE03FE8BC
:101A90000CE15EECEBE07AF111ED09ED09ED09E006
:101AA0005E4346ED09E05E3039ED09E59BBDE58515
:101AB000E07AE05E0002E174ECEBE0A1E141E05E7F
:101AC0000004E174E80CE15EE0A1E141E054FA8732
:101AD00006524D424C4F42BDE03FF0A7E4E6FA0209
:101AE000E07AE15EE7E0E141E15EE15EE80CE141E0
:101AF000E054FAD007464958424C4F42BDE03FE01F
:101B00005EFA8CE05E0021E174F0A7E4E6FA02E000
:101B10005E0002E18DE141E054FAF4064D4B424C87
:101B20004B46BDE03FE05E0001E21FE7FEE15EF5EF
:101B300063E05E0000E2E5E7FEE05E0002E174E1E2
:101B40005EE340E174F74AE30CFB37E05E0000F52A
:101B500063E054FB1B065752424C4F42BDE03FE04E
:101B60005E0001E21FE7FEE05E0002E174E15EE17B
:101B700074F0A7E4E6FA02FA36E07AE05E0002E1E9
:101B800074E15EE0B0E15EE18DE05E0009E238E024
:101B90005E0001E174E0A1E15EE0A1E7FEE15EF537
:101BA00063F721E054FB55065244424C4F42BDE0DE
:101BB0003FE7FEE15EF563E05E0001E21FE7FEE065
:101BC0005E0002E174E15EE174ECEBEA10F5C0EC5A
:101BD000EBE05E0002E174EDE4E05E0003E174FA24
:101BE00002FA66E07AE05E0002E174E15EE0B0E1F4
:101BF0005EE18DE05E0009E238E0A1E0F1E07AE02C
:101C00005E0000E279E2CBFC23E0F1E05E0200E15D
:101C100074E0A1E1E4E0A1EA10F5C0E0FCE1EEE24D
:101C2000BCFBFDE096EA00E0FCE80CE15EECEBE1D9
:101C300041E07AE05E0002E174E15EE7E0E141E06C
:101C40005E0004E174E15EE80CE141E05486061FA9
:101C50008B10CE0700CE08007EF3273BFBA70523A1
:101C6000494E4954BDE5F70016FC5E0555494E49FD
:101C700054BDE04500000000000A00000000000024
:101C8000000000020A00FC6B00003F6F3F3F202075
:101C90002020202020202020202020202020202044
:101CA0002020202020202020202020202020202034
:101CB0002020202020202020202020202020202024
:101CC0002020202020202020202020202020202014
:101FF000FC5BFC5BFC5BFC5BFC5BFC5BFC5BFC4D37
:00200001DF
