:20E000008EE009BFD3F37ECD031AFF86701F8B0F3210CE74008EFAFECE7280C61E8D378EEE
:20E02000FB1CCE7000C6248D2D8D331C008E00001F12CE00003450343034308E729EC6428C
:20E040006F805A26FBCC1A03FD72CA8EF9D7BDE10B9D0C7EE14BA680A7C05A26F939C603D2
:20E06000C63539F6A000C50127F9F6A00139F6A000C50126025F39C6FF393402B6A00085F5
:20E080000227F9F7A0013502393412D7244F9D00C47FC1082704C17F26144D27F1C6089DA8
:20E0A00003C6209D03C6089D03301F4A20E0C10D270DC10A2613F672C9C10D27D1C60AF70C
:20E0C00072C99D0C1F89351239C109270FC12025BD912427B99D03E7804C20B2C62091241C
:20E0E00027AC9D03E7804C850726F120A134161F984D2707E6809D034A26F93516393404EF
:20E10000C60D9D03C60A9D033504393414E68027049D0320F83514390C2C26080C2B2604D0
:20E120000C2A3B123BD32B10932B26FB393410347FBE729EAF6A2007EC6A830001ED6A1CA9
:20E140000086701F8BBDE498BDE3EF9D1E10FF72CCC62E9D038E7200C6809D065D27EC3A28
:20E160006F848E7200E680C4DFC0412517C11A24138EFB40586E959D188EFA19BDE10B9D94
:20E180000C7EE14B9D188EFA09BDE10B9D0C7EE14B8EF7A7BDE10B7EE14B8B9019894019F2
:20E1A0001F899D03393402444444448DED3502840F20E734048DEE35028DEA39E680C1206C
:20E1C00027FA39C0302513C109230CC4DFC007C1092307C10F22031CFB391A0439DC24309A
:20E1E0001F0D26390F240F250F268DD0BDE1C327EC3404DC245849584958495849EBE0DDC3
:20E20000240C26E68020E5FD72A28DD82710FD72A08DA9C12C26078DCB2703FD72A2398DD8
:20E220009B8DA027121F98E6808D98270A48484848D7249B241CFB398E7201CC0040BDE294
:20E240000710BE72A0861097251F20BDE1B3C6209D03A6A0BDE1A5C620962581092602C6CD
:20E260002D9D030A2526EB31308610E6A0C1202402C62EC17F2502C62E9D034A26ED9D0C18
:20E28000FC72A2830010FD72A222BA10BF72A07EE14B8E7201BDE1E42703FD72A08D3B10CF
:20E2A00026FEA8FC72A0BDE1B3C6209D03A69F72A0BDE1A5C6209D038E7200C6809D065D47
:20E2C000270D3A6F848E72008D1026D77EE14BFC72A0C30001FD72A020C9BDE1BC5D273BB6
:20E2E000C12E2737C12D260810BE72A0313F2024C122270F301F10BE72A0BDE21F2715A738
:20E30000A020F710BE72A0A6804D270881222704A7A020F310BF72A01CFB391A04398E7214
:20E3200001BDE1E41F01A684BDE1A59D0C7EE14B8E7201BDE1E4DD28BDE1BCC12B2609BDC0
:20E34000E1E4D328DD2820F0C12D260EBDE1E45343C30001D328DD2820DEDC28BDE1B39DFA
:20E360000C7EE14B8E7201BDE1E42702ED6ABDE4B235FF8E7201EC6AFD729EBDE1E4ED6A20
:20E380001F41327E1F43C60CBDE056CCE12DED6C20DC10AE6ABDE99810BF72BC20D0BDE324
:20E3A000A7BDE3EF7EE14B1A50ECE1FD729ECCE3C3FD7287138E1159301F26FC12121221FE
:20E3C0000235FF3501347FCCE118FD72876E9F729E9D03C63D9D03BDE1A5C6209D03399D64
:20E3E00003C63D9D031F20BDE1B3C6209D0339C65810AE668DE9C65910AE688DE2C6551091
:20E40000AE6A8DDBC6531F42312E8DD3C641A6638DBFC642A6648DB9C644A6658DB3C64331
:20E42000A6628DADC65010AE6C8DB4BDE998BDEA7B9D0C398E7201BDE1BC5D26058DB07E39
:20E44000E14B108EE48E4FC4DF6DA41027FD28E1A027034C20F33402BDE1E43406A662819C
:20E46000042409E6613263E7E67EE14B8108240C35103261488004AFE67EE14B3540326174
:20E4800033541F411F34C60CBDE0567EE14B434142445859555053208E72A48609EE81E678
:20E4A00080118300002702E7C44A26F1CE0000EF1D398E72BC8609EE84270DE6C4E702116B
:20E4C000A36C2704C63FE7C4301D4A26EA39860897278E7201BDE1E4273B8E72A4CE0000CF
:20E4E0001F3210A384272011A38426021F1230030A2726EE108C00002716EDA48EFA27BD6E
:20E50000E10B9D0C7EE14B4F5FED848EFA3620EF8EFA4920EA8E72A4EC842707BDE1B3C69C
:20E52000209D0330030A2726EF9D0C7EE14BBDE21F102700771F89DB27D727398E7201E61B
:20E5400080C4DFC14F2772C153277CE61F0F28C1312706C13926550C280F278DD180029787
:20E56000298DCB34028DC735041E89FE72BF270FFE72C1260A3406B372BFFD72C13506B3AE
:20E5800072C11F028DA80A292704A7A020F60C27261A0D281027FBB3108C0000270310AF25
:20E5A0006A4F5FFD72BFFD72C17EE14B9D188EFA5ABDE10B9D0C7EE14BBDE1E4FD72BF4FA9
:20E5C0005FFD72C17EE14BCC0100BDE207FC72BF2709FC72A0B372BFFD72C1FC72A2274891
:20E5E000108300102502C610D72450FE72A233C5FF72A2C6539D03C6319D030F25D624CBCA
:20E60000038D30FC72A01F02B372C11E898D241E898D20E6A08D1C0A2426F810BF72A0D647
:20E6200025538D0F9D0C20B38EFA6CBDE10B9D0C7EE14B34021F98DB25D725BDE1A53502F7
:20E64000398E7201BDE1E41027FB2CDD28BDE1BCC12C1026FB21BDE1E41027FB1A1F03BD55
:20E66000E1BCC12C1026FB0FBDE1E41027FB081F029E28A680A7C0313F26F87EE14B8E7268
:20E6800001BDE1E41F02BDE1BCC1222611CE72004FE680271FC122271BE7C04C20F3CE72BC
:20E6A00000301F4F3402BDE21F1F8935022705E7C04C20F04D1027FA920F2897291F2196DD
:20E6C000298CE100240930868CE0001024FA7C1F21CE7200E680E1C026144A26F71F20BD87
:20E6E000E1B39D0C0C28962881101027FA5D312120CBC601BDE07AD62DBDE07A53BDE07A2D
:20E700000F2E86808E7100E684DB2ED72EE680BDE07A4A26F2D62EBDE07ABDE063C1182745
:20E720000CC11527CDC10626F10C2D1CFB39C601D72DBDE063C11827F4C11527EE20F3C619
:20E7400004BDE07ABDE063C11827E2C11527F0C10627D820EF48C6323D1F989B2CBDE06EF4
:20E760005D2607912C26F61A0139BDE0631CFE398603BDE75524F93986030D2F2709C606F6
:20E78000BDE07A86052005C615BDE07A0F2F8DC5860325F3C1042752C101264986018DB557
:20E7A0002543D12D27075CD12D263A0C2FD72E86018DA2253053D12E262B8E71000F2E865B
:20E7C000018D922520E780DB2ED72E8C718026EF86018D81250FD12E260B0D2F269A0C2F9D
:20E7E0000C2D1CFB39BDE770209D8603C606BDE07A4A26FA399E01BF72C39E04BF72C59EE7
:20E800000DBF72C77F72C939BE72C39F01BE72C59F04BE72C79F0D7F72C93934168EFA77F6
:20E82000BDE10B9D0C8DCE8EEA619F048EE8E99F010F2F0F308601972D4C973135963416BF
:20E840008DB38EFA89BDE10B9D0C8EE8B09F048EE8CE9F0DBDE72E102700B70F308601973F
:20E8600031359696318102263CBDE770C6188608BDE07A4A26FA8D900F318EFA9EBDE10BC3
:20E880009D0C3996318101261C0D30270C86809030F672CA8D1A4A26F8BDE73F1027007208
:20E8A000BDE8080F3139D631C10226F99D0320F6341696300C308E7100E786817F260D0F99
:20E8C000303460BDE6F210270048356035963404F672CBC5022704C60D8DD5F672CBC50175
:20E8E0002704C60A8DCA35043934120D30260D3460BDE77835602710868097309630408EC1
:20E900007180E6860A303592BDE8080F31F672CA3592BDE8080F318EFA9EBDE10B9D0C7ED0
:20E92000729210FE72CC7EE14B8E7201A68084DF8158274A814C2733814F2747815310269A
:20E94000F842A68484DF8153271ACC0100BDE2079D15FE72A010BE72A2E6C09D03313F26E8
:20E96000F87EE14B30019D157EE5C7BDE1E41F029D129D000D311027F7D1E7A020F49D1272
:20E980007EE14BCC001ABDE207B672A1B772CBB672A3B772CA7EE14B7F72D07F72D4A6A050
:20E9A0008110270481112605B772D0A6A0B772D2444444448EF78AE686F772D48EF77AA637
:20E9C00086BB72D2B772D1CEF29F8E0093C60DE1452708FC72D010A34627223348301F26A0
:20E9E000ECCEF46F8603B772D4B672D27D72D02708B672D07F72D0313FB772D6391183F3A4
:20EA0000A7260A868DB172D22703CEF4A7B672D484FE260AA6458EF79AA686B772D4B6727B
:20EA2000D4488EEA276E96EA61EA5BEA62EA5BEA62EA6CEA5BEA62EA66EA66EA61EA61EAA3
:20EA400061EA61EA61EA61EA61EA61EA5BEA62EA61EA61EA5BEA62EA61EA62E6A01DFD727D
:20EA6000D539ECA120F8E6A0F772D339E6A02AF8F772D3C40F588EEA3B6E951F31C6059D6B
:20EA800009C6209D03B672D4488EEA8E6E96EA61EAA2EAA6EAB0EAA8EB68EAB8EAC6EB2650
:20EAA000EADD8D29200A8D258D27FC72D57EE1B38D1FB672D67EE1A58D17F672D61D109F98
:20EAC00024D3247EE1B38D09FC72D520F1C6230E03C6240E03C62C0E03C6200E03C60C8ED0
:20EAE000F7370F24B672D3A40427358CF741260B9725B672D28402262796258CF746260B83
:20EB00009725B672D284022717962543B472D3B772D334040D2427028DBB8D2B0C2435048D
:20EB200030055A26BF39B672D3444444448D078DA4B672D3840FC60C8EF737A1032705303C
:20EB4000055A26F78D013986031F13E6C0C12027059D034A26F539B672D3444444444484F3
:20EB6000038EF776E6860E030F24B672D32B23841F85102605BDEC61200AC62D9D038AF0FA
:20EB800040BDEC61BDEAD58DCE0D242704C65D9D033985102706C65B9D030C24B672D384CA
:20EBA0000F488EEC416E96860220028601BDEAD5C62D9D034A26F920CE86022002860197E0
:20EBC00025BDEAD5BDEB579625C62B9D034A26F97EEB89C6419D037EEB84C6429D037EEB49
:20EBE00084C6449D037EEB84C63F9D037EEB89B672D62B09BDEAD1BDE1A57EEB84C62D9DF9
:20EC0000034020F0BDEAD1FC72D5BDE1B37EEB84BDEAD1F672D61D109F26D326BDE1B38E28
:20EC2000EC3DC6049D097EEB89BDEAD1FC72D520E6BDEAD1FC72D5BDE1B37EEB892C5043CB
:20EC400052EBBDEBB9EBABEBA7EB84EBDAEBD3EBE8EBEFEC04EBE8EBE1EC10EC29EBE8ECF0
:20EC600031810A2506800AC6319D038B301F890E038D037EE14B8E7201CC0014BDE207FC5B
:20EC800072A0F372A2FD72A210BE72A01F20BDE1B3BDEAD93420BDE9983510109F240F267B
:20ECA000A680BDE1A50C260C269C2426F3C6209D030C26860B912626F426E5BDEA7B0D3228
:20ECC00026029D0C10BC72A223C210BF72A039E684C12D26035F300134048D11270C6DE01D
:20ECE00026074353C300011CFB39350439E680C1241027F4EFC127260EE680A684812726EC
:20ED00000230014F1CFB39C130252FC139222B0F240F25C030251CC10A24183404DC245866
:20ED200049340658495849E3E1EBE08900DD24E68020E0DC24301F1CFB391A04398605CE40
:20ED400072D7E6802715C1202711C4DFC1412504C15A2302E61FE7C04A26E74D2707C6203D
:20ED6000E7C04A26FB9F280F2486939725D625C1FF2739D12425354FDB2489004456D726DA
:20ED8000584958495849CEF29F33CB1F3286058E72D7E680E1A026064A26F77EEDB2D626ED
:20EDA00024055AD72520C65CD72420C18EFAB67E72987F72DD10BE72A0A645488EEDC6AD21
:20EDC0009610BF72A039EDE8EDECEDF0EE05EE2BEE3EEE51EE58EE69EE7AEE8DEEAFEED89E
:20EDE000729BE7A039EDA139E64720F6EC4620F5E6478DEEBDEF96F672D4C101102603FFD5
:20EE0000F672D620DDE6478DD9BDEF96B672D48101102703EA810310240333BDF141868F4E
:20EE2000B772D38602B772DC7EF14EE6478DB3BDEF8E301FBD7295102703BE7EF1B7EC4682
:20EE40008DA3BDEF8E301FBD7295102703AB7EF1DBE647BDEDE220EA8601B772DCBDEF9675
:20EE6000BDEF74BDEDE27EF14E8602B772DCBDEF96BDEF74BDEDE27EF14E8602B772DCBDA7
:20EE8000EF96BDEF74A646BDEDE57EF14EBDEF96E647B672D481011027036481032408B6A4
:20EEA00072DC4A2704CB10CB60BDEDE27EF14EBDEF8E301FE647BDEDE2BDF217E6C45858DE
:20EEC0005858F772D3E680C12C10260332BDF217E6C4FA72D37EEDE2BDEF8E301FE647BD19
:20EEE000EDE27F72D3BDF217E641FA72D3F772D3E680C12C27EF301FF672D37EEDE2E647AA
:20EF0000588EEF066E95EF2BEF16EF2CEF40EF56EF65EF2BEF2BBDEF8E301FBD7295102759
:20EF200002D7BDEDE2E680C12C27F039BDEF8E1F98E68027F63402E1E027F0BDEDE220F1AA
:20EF4000BDEF8E301FBD7295102702ADBDEDE5E680C12C27F039BDEF8E301FBD72951027C8
:20EF600002971F0239BDEF8E301FBD72951027028831AB39E647B672D481022708810324F8
:20EF80000139CB2039CB10B672DC4A26F5399E287F72D47EE1BC8DF6C15B26078605B77270
:20EFA000D4E680C12310270087C12C1027009AC4DF8686C141270C8685C1422706868BC1C6
:20EFC000442616E680C12C260EB772D37F72DCBDF141BDF1232041301F301FBD72951027A7
:20EFE0000217FD72D57D72DD2609B372DE4D26034C20028602B772DCB672D48105260C860B
:20F0000002B772DC868FB772D320058602B772D4E680C12C10270086B672D481052510B6B1
:20F0200072D38A10B772D3E680C15D102701D039BD7295102701C2FD72D5B672D48105109C
:20F040002701BC8601B772D439BDF1417F72DC4FE680C12D26034C20F7301F81021022011F
:20F060009E4D262F7F72D3BDF1234FE680C12B26034C20F7301F8102102201834D260A8603
:20F0800084BA72D3B772D3208F8B7FBA72D3B772D320858B81B772D3BDF12316FF7A7F723F
:20F0A000D3BDF141E680C4DFC15010270057301F7F72DC8D6EFC72D57D72DD26381083FFD0
:20F0C000F02D181083000F2E12B672D481052717C41FFA72D3F772D316FF3D1083FF802D6A
:20F0E000141083007F2E0E7C72DCC688FA72D3F772D316FF238602B772DCC689FA72D3F7D1
:20F1000072D316FF13E680C4DFC1432506C152220220F2301FC68CFA72D3F772D37C72D423
:20F1200016FEF5E680C4DF34108EF7764FE18027078B202AF87EF1FFBA72D3B772D3351025
:20F1400039B672D4810324058603B772D439B672D48103250DF672D3BDEDE2B672D4840114
:20F160002715B672DC4D27E54A2706FC72D57EEDE5F672D67EEDE210BF72A0FC72D5B37218
:20F18000A08300017D72DD26141083FF802D0E1083FF812E088601B772DC7EEDE283000152
:20F1A000313F7C72D33406F672D3BDEDE28602B772DC35067EEDE510BF72A0B372A08300DC
:20F1C000011083FF802D2C1083007F2E26BDEDE28604B772D48601B772DC3910BF72A0B3F1
:20F1E00072A0830002BDEDE58604B772D48602B772DC398EFAEE7E72988EFAC77E72988E39
:20F20000FAD87E729834109D183510BDE10B9D0C10FE72CC7EE14BC60C3424CEF7371F12B7
:20F220008603E6C4C1202606E6A4C1412D18E6A0C4DFE1C026064A26E94C200A4C33C66A49
:20F24000E426DB16FFB933C61F213524398E7201BDE1E4FD72A00C32108E000010BF72A2DF
:20F26000FC72A03406BDEC7FFC72A0FD72CE3506FD72A0C6099D038E7200C6809D065D27AD
:20F28000113A6F848E7200A684812E270DBDED3D20C6FC72CEFD72A020BE0F327EE14B4101
:20F2A0004258202000003A414443412007008941444342200700C9414444412007008B418A
:20F2C000444442200700CB41444444200800C3414E444120070084414E4442200700C4417A
:20F2E0004E44434302001C41534C20200A000841534C412000004841534C42200000584142
:20F30000535220200A00074153524120000047415352422000005742434320200400244258
:20F32000435320200400254245512020040027424745202004002C424754202004002E42BC
:20F34000484920200400224248532020040024424954412007008542495442200700C54256
:20F360004C45202004002F424C4F2020040025424C532020040023424C54202004002D4266
:20F380004D49202004002B424E45202004002642504C202004002A42524120200400204262
:20F3A000524E2020040021425352202004008D4256432020040028425653202004002943AE
:20F3C0004C5220200A000F434C52412000004F434C52422000005F434D50412007008143F7
:20F3E0004D5042200700C1434D504420091083434D50532009118C434D5055200911834338
:20F400004D50582008008C434D50592009108C434F4D20200A0003434F4D41200000434353
:20F420004F4D4220000053435741492002003C444141202000001944454320200A000A4476
:20F440004543412000004A444543422000005A454F524120070088454F5242200700C845BF
:20F46000515520200D000045584720200B001E46434220200D000146434320200D000246D2
:20F48000444220200D0003494E4320200A000C494E43412000004C494E43422000005C4AFD
:20F4A0004D5020200A000E4A5352202008008D4C424343200510244C424353200510254C5C
:20F4C000424551200510274C4247452005102C4C4247542005102E4C424849200510224C2F
:20F4E000424853200510244C424C452005102F4C424C4F200510254C424C53200510234CFF
:20F50000424C542005102D4C424D492005102B4C424E45200510264C42504C2005102A4CD2
:20F52000425241200600164C42524E200510214C425352200600174C425643200510284CF6
:20F54000425653200510294C444120200700864C444220200700C64C444420200800CC4CB1
:20F56000445320200910CE4C445520200800CE4C4458202008008E4C4459202009108E4CF8
:20F58000454153200300324C454155200300334C454158200300304C454159200300314C78
:20F5A000534C20200A00084C534C41200000484C534C42200000584C535220200A00044C96
:20F5C000535241200000444C535242200000544D554C202000003D4E454720200A00004E5D
:20F5E000454741200000404E454742200000504E4F5020200000124F5241202007008A4F11
:20F60000524220200700CA4F5243432002001A4F524720200D000450534853200C003450BB
:20F62000534855200C003650554C53200C003550554C55200C0037524D4220200D000552A5
:20F640004F4C20200A0009524F4C4120000049524F4C4220000059524F5220200A000652E8
:20F660004F524120000046524F524220000056525449202000003B52545320200000395368
:20F680004243412007008253424342200700C253455420200D000653455444500D000753D2
:20F6A0004558202000001D535441202007008753544220200700C753544420200800CD5350
:20F6C000545320200910CF53545520200800CF535458202008008F535459202009108F5337
:20F6E0005542412007008053554242200700C05355424420080083535749202000003F53DA
:20F700005749322001103F535749332001113F53594E432000001354465220200B001F54F6
:20F72000535420200A000D545354412000004D545354422000005D58202001105920200224
:20F740002055202003405320200440504320058041202008024220200904442020000643BB
:20F7600043200A014343520A014450200B084450520B083F202058595553000000000000A0
:20F78000A09000F0E0D000F0E0D003000000000005040103050401030504000001050607C0
:20F7A000070102020008090D0A41736D202020207B41616464727D0D0A556E61736D202045
:20F7C0007B55206F72205561646472206F722055616464722C6C656E6774687D0D0A436151
:20F7E0006C632020207B436865786E756D317B2B7C2D6865786E756D327D7D0D0A44756D09
:20F80000702020207B44206F72204461646472206F722044616464722C6C656E6774687D2E
:20F820000D0A456E74657220207B45206F72204561646472206F72204561646472206279B6
:20F84000746573206F722045616464722022737472696E67227D0D0A427265616B20207B2C
:20F8600042206F722042616464722E204220646973706C6179732C2042616464722073650E
:20F880007473206F7220636C6561727320627265616B706F696E747D0D0A46696E64202042
:20F8A000207B4661646472206279746573206F722046616464722022737472696E67227D0B
:20F8C0000D0A476F20202020207B47206F722047616464727D0D0A496E70202020207B49F7
:20F8E000616464727D0D0A4A756D702020207B4A616464727D0D0A4D6F76652020207B4D2A
:20F9000061646472312C61646472322C6C656E6774687D0D0A50726F672020207B507D0D93
:20F920000A526567732020207B52206F7220523C6C65747465723E3C6865783E7D0D0A53DC
:20F940007265632020207B534F3C616464723E206F722053533C616464723E2C3C6C656E58
:20F960003E206F722053313C62797465733E206F722053393C62797465733E7D0D0A54725B
:20F9800061636520207B547D0D0A586D6F64656D207B5853616464722C6C656E20584C61C0
:20F9A0006464722C6C656E20585820584F63726C662C66696C6C65722C2058535361646447
:20F9C000722C6C656E7D0D0A48656C702020207B487D0D0A0D0A00425547475920666F727A
:20F9E000204B6970706572205342432C2032303135536570313720287479706520682066C8
:20FA00006F722068656C702900556E6B6E6F776E20636F6D6D616E640042616420617267C3
:20FA2000756D656E747300427265616B706F696E742073657400427265616B706F696E74A0
:20FA400020636C656172656400427265616B706F696E74732066756C6C004572726F722037
:20FA6000696E2053207265636F7264005339303330303030464300537461727420584D4F43
:20FA800044454D2053656E6400537461727420584D4F44454D205265636569766500584D66
:20FAA0004F44454D207472616E736665722061626F7274656400496E76616C6964206D6ED9
:20FAC000656D6F6E69630045787072657373696F6E206572726F7200416464726573736902
:20FAE0006E67206D6F6465206572726F72004272616E636820746F6F206C6F6E67007EE133
:20FB0000247EE1247EE1187EE1237EE1387EE1247EE9227EECCF7EF2057EEEFE7EE0637E4B
:20FB2000E07A7EE0897EE0ED7EE0FE7EE06E7EE81B7EE83E7EE8637EE8A67EE8837EE125AA
:20FB4000F24DE4CEE330E238E292E67EE364E191E31EE373E184E184E641E184E184E3926F
:14FB6000E184E434E53CE39EEC71E184E184E929E184E1846F
:0CFFB000E1A5E1B3E21FE1E4ECEDED3D62
:0EFFF2007280728372867289728C728FE0093F
