:202000008EE009BFD3F37ECD031AFF86701F8B0F3210CE74008EFAFECE7280C61E8D378EAE
:20202000FB1CCE7000C6248D2D8D331C008E00001F12CE00003450343034308E729EC6424C
:202040006F805A26FBCC1A03FD72CA8EF9D7BDE10B9D0C7EE14BA680A7C05A26F939C60392
:20206000C63539F6A000C50127F9F6A00139F6A000C50126025F39C6FF393402B6A00085B5
:202080000227F9F7A0013502393412D7244F9D00C47FC1082704C17F26144D27F1C6089D68
:2020A00003C6209D03C6089D03301F4A20E0C10D270DC10A2613F672C9C10D27D1C60AF7CC
:2020C00072C99D0C1F89351239C109270FC12025BD912427B99D03E7804C20B2C6209124DC
:2020E00027AC9D03E7804C850726F120A134161F984D2707E6809D034A26F93516393404AF
:20210000C60D9D03C60A9D033504393414E68027049D0320F83514390C2C26080C2B260490
:202120000C2A3B123BD32B10932B26FB393410347FBE729EAF6A2007EC6A830001ED6A1C69
:202140000086701F8BBDE498BDE3EF9D1E10FF72CCC62E9D038E7200C6809D065D27EC3AE8
:202160006F848E7200E680C4DFC0412517C11A24138EFB40586E959D188EFA19BDE10B9D54
:202180000C7EE14B9D188EFA09BDE10B9D0C7EE14B8EF7A7BDE10B7EE14B8B9019894019B2
:2021A0001F899D03393402444444448DED3502840F20E734048DEE35028DEA39E680C1202C
:2021C00027FA39C0302513C109230CC4DFC007C1092307C10F22031CFB391A0439DC24305A
:2021E0001F0D26390F240F250F268DD0BDE1C327EC3404DC245849584958495849EBE0DD83
:20220000240C26E68020E5FD72A28DD82710FD72A08DA9C12C26078DCB2703FD72A2398D98
:202220009B8DA027121F98E6808D98270A48484848D7249B241CFB398E7201CC0040BDE254
:202240000710BE72A0861097251F20BDE1B3C6209D03A6A0BDE1A5C620962581092602C68D
:202260002D9D030A2526EB31308610E6A0C1202402C62EC17F2502C62E9D034A26ED9D0CD8
:20228000FC72A2830010FD72A222BA10BF72A07EE14B8E7201BDE1E42703FD72A08D3B108F
:2022A00026FEA8FC72A0BDE1B3C6209D03A69F72A0BDE1A5C6209D038E7200C6809D065D07
:2022C000270D3A6F848E72008D1026D77EE14BFC72A0C30001FD72A020C9BDE1BC5D273B76
:2022E000C12E2737C12D260810BE72A0313F2024C122270F301F10BE72A0BDE21F2715A7F8
:20230000A020F710BE72A0A6804D270881222704A7A020F310BF72A01CFB391A04398E72D4
:2023200001BDE1E41F01A684BDE1A59D0C7EE14B8E7201BDE1E4DD28BDE1BCC12B2609BD80
:20234000E1E4D328DD2820F0C12D260EBDE1E45343C30001D328DD2820DEDC28BDE1B39DBA
:202360000C7EE14B8E7201BDE1E42702ED6ABDE4B235FF8E7201EC6AFD729EBDE1E4ED6AE0
:202380001F41327E1F43C60CBDE056CCE12DED6C20DC10AE6ABDE99810BF72BC20D0BDE3E4
:2023A000A7BDE3EF7EE14B1A50ECE1FD729ECCE3C3FD7287138E1159301F26FC12121221BE
:2023C0000235FF3501347FCCE118FD72876E9F729E9D03C63D9D03BDE1A5C6209D03399D24
:2023E00003C63D9D031F20BDE1B3C6209D0339C65810AE668DE9C65910AE688DE2C6551051
:20240000AE6A8DDBC6531F42312E8DD3C641A6638DBFC642A6648DB9C644A6658DB3C643F1
:20242000A6628DADC65010AE6C8DB4BDE998BDEA7B9D0C398E7201BDE1BC5D26058DB07EF9
:20244000E14B108EE48E4FC4DF6DA41027FD28E1A027034C20F33402BDE1E43406A662815C
:20246000042409E6613263E7E67EE14B8108240C35103261488004AFE67EE14B3540326134
:2024800033541F411F34C60CBDE0567EE14B434142445859555053208E72A48609EE81E638
:2024A00080118300002702E7C44A26F1CE0000EF1D398E72BC8609EE84270DE6C4E702112B
:2024C000A36C2704C63FE7C4301D4A26EA39860897278E7201BDE1E4273B8E72A4CE00008F
:2024E0001F3210A384272011A38426021F1230030A2726EE108C00002716EDA48EFA27BD2E
:20250000E10B9D0C7EE14B4F5FED848EFA3620EF8EFA4920EA8E72A4EC842707BDE1B3C65C
:20252000209D0330030A2726EF9D0C7EE14BBDE21F102700771F89DB27D727398E7201E6DB
:2025400080C4DFC14F2772C153277CE61F0F28C1312706C13926550C280F278DD180029747
:20256000298DCB34028DC735041E89FE72BF270FFE72C1260A3406B372BFFD72C13506B36E
:2025800072C11F028DA80A292704A7A020F60C27261A0D281027FBB3108C0000270310AFE5
:2025A0006A4F5FFD72BFFD72C17EE14B9D188EFA5ABDE10B9D0C7EE14BBDE1E4FD72BF4F69
:2025C0005FFD72C17EE14BCC0100BDE207FC72BF2709FC72A0B372BFFD72C1FC72A2274851
:2025E000108300102502C610D72450FE72A233C5FF72A2C6539D03C6319D030F25D624CB8A
:20260000038D30FC72A01F02B372C11E898D241E898D20E6A08D1C0A2426F810BF72A0D607
:2026200025538D0F9D0C20B38EFA6CBDE10B9D0C7EE14B34021F98DB25D725BDE1A53502B7
:20264000398E7201BDE1E41027FB2CDD28BDE1BCC12C1026FB21BDE1E41027FB1A1F03BD15
:20266000E1BCC12C1026FB0FBDE1E41027FB081F029E28A680A7C0313F26F87EE14B8E7228
:2026800001BDE1E41F02BDE1BCC1222611CE72004FE680271FC122271BE7C04C20F3CE727C
:2026A00000301F4F3402BDE21F1F8935022705E7C04C20F04D1027FA920F2897291F21969D
:2026C000298CE100240930868CE0001024FA7C1F21CE7200E680E1C026144A26F71F20BD47
:2026E000E1B39D0C0C28962881101027FA5D312120CBC601BDE07AD62DBDE07A53BDE07AED
:202700000F2E86808E7100E684DB2ED72EE680BDE07A4A26F2D62EBDE07ABDE063C1182705
:202720000CC11527CDC10626F10C2D1CFB39C601D72DBDE063C11827F4C11527EE20F3C6D9
:2027400004BDE07ABDE063C11827E2C11527F0C10627D820EF48C6323D1F989B2CBDE06EB4
:202760005D2607912C26F61A0139BDE0631CFE398603BDE75524F93986030D2F2709C606B6
:20278000BDE07A86052005C615BDE07A0F2F8DC5860325F3C1042752C101264986018DB517
:2027A0002543D12D27075CD12D263A0C2FD72E86018DA2253053D12E262B8E71000F2E861B
:2027C000018D922520E780DB2ED72E8C718026EF86018D81250FD12E260B0D2F269A0C2F5D
:2027E0000C2D1CFB39BDE770209D8603C606BDE07A4A26FA399E01BF72C39E04BF72C59EA7
:202800000DBF72C77F72C939BE72C39F01BE72C59F04BE72C79F0D7F72C93934168EFA77B6
:20282000BDE10B9D0C8DCE8EEA619F048EE8E99F010F2F0F308601972D4C9731359634167F
:202840008DB38EFA89BDE10B9D0C8EE8B09F048EE8CE9F0DBDE72E102700B70F30860197FF
:2028600031359696318102263CBDE770C6188608BDE07A4A26FA8D900F318EFA9EBDE10B83
:202880009D0C3996318101261C0D30270C86809030F672CA8D1A4A26F8BDE73F10270072C8
:2028A000BDE8080F3139D631C10226F99D0320F6341696300C308E7100E786817F260D0F59
:2028C000303460BDE6F210270048356035963404F672CBC5022704C60D8DD5F672CBC50135
:2028E0002704C60A8DCA35043934120D30260D3460BDE77835602710868097309630408E81
:202900007180E6860A303592BDE8080F31F672CA3592BDE8080F318EFA9EBDE10B9D0C7E90
:20292000729210FE72CC7EE14B8E7201A68084DF8158274A814C2733814F2747815310265A
:20294000F842A68484DF8153271ACC0100BDE2079D15FE72A010BE72A2E6C09D03313F26A8
:20296000F87EE14B30019D157EE5C7BDE1E41F029D129D000D311027F7D1E7A020F49D1232
:202980007EE14BCC001ABDE207B672A1B772CBB672A3B772CA7EE14B7F72D07F72D4A6A010
:2029A0008110270481112605B772D0A6A0B772D2444444448EF78AE686F772D48EF77AA6F7
:2029C00086BB72D2B772D1CEF29F8E0093C60DE1452708FC72D010A34627223348301F2660
:2029E000ECCEF46F8603B772D4B672D27D72D02708B672D07F72D0313FB772D6391183F364
:202A0000A7260A868DB172D22703CEF4A7B672D484FE260AA6458EF79AA686B772D4B6723B
:202A2000D4488EEA276E96EA61EA5BEA62EA5BEA62EA6CEA5BEA62EA66EA66EA61EA61EA63
:202A400061EA61EA61EA61EA61EA61EA5BEA62EA61EA61EA5BEA62EA61EA62E6A01DFD723D
:202A6000D539ECA120F8E6A0F772D339E6A02AF8F772D3C40F588EEA3B6E951F31C6059D2B
:202A800009C6209D03B672D4488EEA8E6E96EA61EAA2EAA6EAB0EAA8EB68EAB8EAC6EB2610
:202AA000EADD8D29200A8D258D27FC72D57EE1B38D1FB672D67EE1A58D17F672D61D109F58
:202AC00024D3247EE1B38D09FC72D520F1C6230E03C6240E03C62C0E03C6200E03C60C8E90
:202AE000F7370F24B672D3A40427358CF741260B9725B672D28402262796258CF746260B43
:202B00009725B672D284022717962543B472D3B772D334040D2427028DBB8D2B0C2435044D
:202B200030055A26BF39B672D3444444448D078DA4B672D3840FC60C8EF737A103270530FC
:202B4000055A26F78D013986031F13E6C0C12027059D034A26F539B672D3444444444484B3
:202B6000038EF776E6860E030F24B672D32B23841F85102605BDEC61200AC62D9D038AF0BA
:202B800040BDEC61BDEAD58DCE0D242704C65D9D033985102706C65B9D030C24B672D3848A
:202BA0000F488EEC416E96860220028601BDEAD5C62D9D034A26F920CE86022002860197A0
:202BC00025BDEAD5BDEB579625C62B9D034A26F97EEB89C6419D037EEB84C6429D037EEB09
:202BE00084C6449D037EEB84C63F9D037EEB89B672D62B09BDEAD1BDE1A57EEB84C62D9DB9
:202C0000034020F0BDEAD1FC72D5BDE1B37EEB84BDEAD1F672D61D109F26D326BDE1B38EE8
:202C2000EC3DC6049D097EEB89BDEAD1FC72D520E6BDEAD1FC72D5BDE1B37EEB892C50438B
:202C400052EBBDEBB9EBABEBA7EB84EBDAEBD3EBE8EBEFEC04EBE8EBE1EC10EC29EBE8ECB0
:202C600031810A2506800AC6319D038B301F890E038D037EE14B8E7201CC0014BDE207FC1B
:202C800072A0F372A2FD72A210BE72A01F20BDE1B3BDEAD93420BDE9983510109F240F263B
:202CA000A680BDE1A50C260C269C2426F3C6209D030C26860B912626F426E5BDEA7B0D32E8
:202CC00026029D0C10BC72A223C210BF72A039E684C12D26035F300134048D11270C6DE0DD
:202CE00026074353C300011CFB39350439E680C1241027F4EFC127260EE680A684812726AC
:202D00000230014F1CFB39C130252FC139222B0F240F25C030251CC10A24183404DC245826
:202D200049340658495849E3E1EBE08900DD24E68020E0DC24301F1CFB391A04398605CE00
:202D400072D7E6802715C1202711C4DFC1412504C15A2302E61FE7C04A26E74D2707C620FD
:202D6000E7C04A26FB9F280F2486939725D625C1FF2739D12425354FDB2489004456D7269A
:202D8000584958495849CEF29F33CB1F3286058E72D7E680E1A026064A26F77EEDB2D626AD
:202DA00024055AD72520C65CD72420C18EFAB67E72987F72DD10BE72A0A645488EEDC6ADE1
:202DC0009610BF72A039EDE8EDECEDF0EE05EE2BEE3EEE51EE58EE69EE7AEE8DEEAFEED85E
:202DE000729BE7A039EDA139E64720F6EC4620F5E6478DEEBDEF96F672D4C101102603FF95
:202E0000F672D620DDE6478DD9BDEF96B672D48101102703EA810310240333BDF141868F0E
:202E2000B772D38602B772DC7EF14EE6478DB3BDEF8E301FBD7295102703BE7EF1B7EC4642
:202E40008DA3BDEF8E301FBD7295102703AB7EF1DBE647BDEDE220EA8601B772DCBDEF9635
:202E6000BDEF74BDEDE27EF14E8602B772DCBDEF96BDEF74BDEDE27EF14E8602B772DCBD67
:202E8000EF96BDEF74A646BDEDE57EF14EBDEF96E647B672D481011027036481032408B664
:202EA00072DC4A2704CB10CB60BDEDE27EF14EBDEF8E301FE647BDEDE2BDF217E6C458589E
:202EC0005858F772D3E680C12C10260332BDF217E6C4FA72D37EEDE2BDEF8E301FE647BDD9
:202EE000EDE27F72D3BDF217E641FA72D3F772D3E680C12C27EF301FF672D37EEDE2E6476A
:202F0000588EEF066E95EF2BEF16EF2CEF40EF56EF65EF2BEF2BBDEF8E301FBD7295102719
:202F200002D7BDEDE2E680C12C27F039BDEF8E1F98E68027F63402E1E027F0BDEDE220F16A
:202F4000BDEF8E301FBD7295102702ADBDEDE5E680C12C27F039BDEF8E301FBD7295102788
:202F600002971F0239BDEF8E301FBD72951027028831AB39E647B672D481022708810324B8
:202F80000139CB2039CB10B672DC4A26F5399E287F72D47EE1BC8DF6C15B26078605B77230
:202FA000D4E680C12310270087C12C1027009AC4DF8686C141270C8685C1422706868BC186
:202FC000442616E680C12C260EB772D37F72DCBDF141BDF1232041301F301FBD7295102767
:202FE0000217FD72D57D72DD2609B372DE4D26034C20028602B772DCB672D48105260C86CB
:2030000002B772DC868FB772D320058602B772D4E680C12C10270086B672D481052510B671
:2030200072D38A10B772D3E680C15D102701D039BD7295102701C2FD72D5B672D48105105C
:203040002701BC8601B772D439BDF1417F72DC4FE680C12D26034C20F7301F8102102201DF
:203060009E4D262F7F72D3BDF1234FE680C12B26034C20F7301F8102102201834D260A86C3
:2030800084BA72D3B772D3208F8B7FBA72D3B772D320858B81B772D3BDF12316FF7A7F72FF
:2030A000D3BDF141E680C4DFC15010270057301F7F72DC8D6EFC72D57D72DD26381083FF90
:2030C000F02D181083000F2E12B672D481052717C41FFA72D3F772D316FF3D1083FF802D2A
:2030E000141083007F2E0E7C72DCC688FA72D3F772D316FF238602B772DCC689FA72D3F791
:2031000072D316FF13E680C4DFC1432506C152220220F2301FC68CFA72D3F772D37C72D4E3
:2031200016FEF5E680C4DF34108EF7764FE18027078B202AF87EF1FFBA72D3B772D33510E5
:2031400039B672D4810324058603B772D439B672D48103250DF672D3BDEDE2B672D48401D4
:203160002715B672DC4D27E54A2706FC72D57EEDE5F672D67EEDE210BF72A0FC72D5B372D8
:20318000A08300017D72DD26141083FF802D0E1083FF812E088601B772DC7EEDE283000112
:2031A000313F7C72D33406F672D3BDEDE28602B772DC35067EEDE510BF72A0B372A083009C
:2031C000011083FF802D2C1083007F2E26BDEDE28604B772D48601B772DC3910BF72A0B3B1
:2031E00072A0830002BDEDE58604B772D48602B772DC398EFAEE7E72988EFAC77E72988EF9
:20320000FAD87E729834109D183510BDE10B9D0C10FE72CC7EE14BC60C3424CEF7371F1277
:203220008603E6C4C1202606E6A4C1412D18E6A0C4DFE1C026064A26E94C200A4C33C66A09
:20324000E426DB16FFB933C61F213524398E7201BDE1E4FD72A00C32108E000010BF72A29F
:20326000FC72A03406BDEC7FFC72A0FD72CE3506FD72A0C6099D038E7200C6809D065D276D
:20328000113A6F848E7200A684812E270DBDED3D20C6FC72CEFD72A020BE0F327EE14B41C1
:2032A0004258202000003A414443412007008941444342200700C9414444412007008B414A
:2032C000444442200700CB41444444200800C3414E444120070084414E4442200700C4413A
:2032E0004E44434302001C41534C20200A000841534C412000004841534C42200000584102
:20330000535220200A00074153524120000047415352422000005742434320200400244218
:20332000435320200400254245512020040027424745202004002C424754202004002E427C
:20334000484920200400224248532020040024424954412007008542495442200700C54216
:203360004C45202004002F424C4F2020040025424C532020040023424C54202004002D4226
:203380004D49202004002B424E45202004002642504C202004002A42524120200400204222
:2033A000524E2020040021425352202004008D42564320200400284256532020040029436E
:2033C0004C5220200A000F434C52412000004F434C52422000005F434D50412007008143B7
:2033E0004D5042200700C1434D504420091083434D50532009118C434D50552009118343F8
:203400004D50582008008C434D50592009108C434F4D20200A0003434F4D41200000434313
:203420004F4D4220000053435741492002003C444141202000001944454320200A000A4436
:203440004543412000004A444543422000005A454F524120070088454F5242200700C8457F
:20346000515520200D000045584720200B001E46434220200D000146434320200D00024692
:20348000444220200D0003494E4320200A000C494E43412000004C494E43422000005C4ABD
:2034A0004D5020200A000E4A5352202008008D4C424343200510244C424353200510254C1C
:2034C000424551200510274C4247452005102C4C4247542005102E4C424849200510224CEF
:2034E000424853200510244C424C452005102F4C424C4F200510254C424C53200510234CBF
:20350000424C542005102D4C424D492005102B4C424E45200510264C42504C2005102A4C92
:20352000425241200600164C42524E200510214C425352200600174C425643200510284CB6
:20354000425653200510294C444120200700864C444220200700C64C444420200800CC4C71
:20356000445320200910CE4C445520200800CE4C4458202008008E4C4459202009108E4CB8
:20358000454153200300324C454155200300334C454158200300304C454159200300314C38
:2035A000534C20200A00084C534C41200000484C534C42200000584C535220200A00044C56
:2035C000535241200000444C535242200000544D554C202000003D4E454720200A00004E1D
:2035E000454741200000404E454742200000504E4F5020200000124F5241202007008A4FD1
:20360000524220200700CA4F5243432002001A4F524720200D000450534853200C0034507B
:20362000534855200C003650554C53200C003550554C55200C0037524D4220200D00055265
:203640004F4C20200A0009524F4C4120000049524F4C4220000059524F5220200A000652A8
:203660004F524120000046524F524220000056525449202000003B52545320200000395328
:203680004243412007008253424342200700C253455420200D000653455444500D00075392
:2036A0004558202000001D535441202007008753544220200700C753544420200800CD5310
:2036C000545320200910CF53545520200800CF535458202008008F535459202009108F53F7
:2036E0005542412007008053554242200700C05355424420080083535749202000003F539A
:203700005749322001103F535749332001113F53594E432000001354465220200B001F54B6
:20372000535420200A000D545354412000004D545354422000005D582020011059202002E4
:2037400020552020034053202004405043200580412020080242202009044420200006437B
:2037600043200A014343520A014450200B084450520B083F20205859555300000000000060
:20378000A09000F0E0D000F0E0D00300000000000504010305040103050400000105060780
:2037A000070102020008090D0A41736D202020207B41616464727D0D0A556E61736D202005
:2037C0007B55206F72205561646472206F722055616464722C6C656E6774687D0D0A436111
:2037E0006C632020207B436865786E756D317B2B7C2D6865786E756D327D7D0D0A44756DC9
:20380000702020207B44206F72204461646472206F722044616464722C6C656E6774687DEE
:203820000D0A456E74657220207B45206F72204561646472206F7220456164647220627976
:20384000746573206F722045616464722022737472696E67227D0D0A427265616B20207BEC
:2038600042206F722042616464722E204220646973706C6179732C204261646472207365CE
:203880007473206F7220636C6561727320627265616B706F696E747D0D0A46696E64202002
:2038A000207B4661646472206279746573206F722046616464722022737472696E67227DCB
:2038C0000D0A476F20202020207B47206F722047616464727D0D0A496E70202020207B49B7
:2038E000616464727D0D0A4A756D702020207B4A616464727D0D0A4D6F76652020207B4DEA
:2039000061646472312C61646472322C6C656E6774687D0D0A50726F672020207B507D0D53
:203920000A526567732020207B52206F7220523C6C65747465723E3C6865783E7D0D0A539C
:203940007265632020207B534F3C616464723E206F722053533C616464723E2C3C6C656E18
:203960003E206F722053313C62797465733E206F722053393C62797465733E7D0D0A54721B
:2039800061636520207B547D0D0A586D6F64656D207B5853616464722C6C656E20584C6180
:2039A0006464722C6C656E20585820584F63726C662C66696C6C65722C2058535361646407
:2039C000722C6C656E7D0D0A48656C702020207B487D0D0A0D0A00425547475920666F723A
:2039E000204B6970706572205342432C203230313553657031372028747970652068206688
:203A00006F722068656C702900556E6B6E6F776E20636F6D6D616E64004261642061726783
:203A2000756D656E747300427265616B706F696E742073657400427265616B706F696E7460
:203A400020636C656172656400427265616B706F696E74732066756C6C004572726F7220F7
:203A6000696E2053207265636F7264005339303330303030464300537461727420584D4F03
:203A800044454D2053656E6400537461727420584D4F44454D205265636569766500584D26
:203AA0004F44454D207472616E736665722061626F7274656400496E76616C6964206D6E99
:203AC000656D6F6E69630045787072657373696F6E206572726F72004164647265737369C2
:203AE0006E67206D6F6465206572726F72004272616E636820746F6F206C6F6E67007EE1F3
:203B0000247EE1247EE1187EE1237EE1387EE1247EE9227EECCF7EF2057EEEFE7EE0637E0B
:203B2000E07A7EE0897EE0ED7EE0FE7EE06E7EE81B7EE83E7EE8637EE8A67EE8837EE1256A
:203B4000F24DE4CEE330E238E292E67EE364E191E31EE373E184E184E641E184E184E3922F
:143B6000E184E434E53CE39EEC71E184E184E929E184E1842F
:0C3FB000E1A5E1B3E21FE1E4ECEDED3D22
:0E3FF2007280728372867289728C728FE009FF
:100000000000034B45593406F6A000C40127F9F659
:10001000A0014F6EB1C002044B45593F34064FF664
:10002000A000C4012702C6FF6EB1C01704454D49A8
:1000300054B6A000840227F9F7A00135066EB13648
:100040002035206EB1351034061F106EB1C02C045F
:100050004558495437206EB1C04F034C49543406BB
:10006000ECA16EB1C05A07455845435554451F0190
:1000700035066E84C0660344555034066EB1C076B2
:10008000043F44555010830000270234066EB1C06F
:10009000800444524F5035066EB1C091045357410D
:1000A00050AEE4EDE41F106EB1C09C044F564552B3
:1000B0003406EC626EB1C0AB03524F54AEE4EDE4D3
:1000C000EC62AF626EB1C0B8034E495032626EB19D
:1000D000C0C8045455434BAEE4EDE434106EB1C0D7
:1000E000D2045049434B5849ECEB6EB1C0E1023E9B
:1000F00052360635066EB1C0EE02523E3406370661
:100100006EB1C0F90252403406ECC46EB1C10403B2
:1001100053504034061F406EB1C10F035350211F8E
:100120000435066EB1C11B0352504034061F306EB9
:10013000B1C127035250211F0335066EB1C13301EF
:10014000211F013506ED8435066EB1C13F02432102
:100150001F013506E78435066EB1C14D01401F0110
:10016000EC846EB1C15C0243401F01E6844F6EB166
:10017000C166012BE3E16EB1C172024D2BE362ED6A
:10018000623506C90089006EB1C17A012DA3E14331
:1001900053C300016EB1C18B064E454741544543E0
:1001A00053C300016EB1C19803414E44A4E0E4E0A2
:1001B0006EB1C1A8024F52AAE0EAE06EB1C1B40329
:1001C000584F52A8E0E8E06EB1C1BF06494E56450F
:1001D000525443536EB1C1CB023E3C1E896EB1C135
:1001E000D802312BC300016EB1C1E102312D830071
:1001F000016EB1C1EB02322A58496EB1C1F502322B
:100200002F47566EB1C1FE022B211F013506E38434
:10021000ED8435066EB1C207064C53484946541F5B
:10022000013506308427065849301F26FA6EB1C2C0
:1002300018065253484946541F0135063084270694
:100240004456301F26FA6EB1C23102303D10830091
:10025000002605CCFFFF6EB14F5F6EB1C24A02307F
:100260003C4D2BEF4F5F6EB1C25E013DA3E127E332
:100270004F5F6EB1C26A023C3EA3E126D64F5F6E6D
:10028000B1C276013CA3E12ECA4F5F6EB1C28301B9
:100290003EA3E12DBE4F5F6EB1C28F02553CA3E17C
:1002A00022B14F5F6EB1C29B02553EA3E125A44F20
:1002B0005F6EB1C2A8064252414E434810AEA46ED2
:1002C000B1C2B5073F4252414E4348108300002659
:1002D00007350610AEA46EB1350631226EB1C2C329
:1002E0000428444F291F01CC8000A3E13606308B3F
:1002F000361035066EB1C2E006554E4C4F4F5033A6
:10030000446EB1C2F806284C4F4F50293406ECC455
:10031000C300012909EDC410AEA435066EB1312227
:10032000334435066EB1C30507282B4C4F4F502977
:10033000E3C428E13122334435066EB1C3280149B4
:100340003406ECC4A3426EB1C33E014A3406EC4409
:10035000A3466EB1C34A03554D2A3416A665E6611D
:100360003DED62A664E6613DEB628900ED61A66544
:10037000E6E43DE361ED614F49E6E4A7E4A6643DB0
:10038000E3E4AE623264AFE46EB1C35606554D2F5E
:100390004D4F4434068E0010686569646963696274
:1003A000EC622408A3E4ED621CFE2006A3E425020F
:1003B000ED6269656964301F26E2EC644353AE6206
:1003C000AF6432646EB1C38C0446494C4C36203560
:1003D000308C00002706E7A0301F26FA35063720AC
:1003E0006EB1C3C802533DE362AE6210AF6210AE9D
:1003F000E4EDE45FACE42712A680A0A0270AC200C7
:100400001F98CA0135306EB120EA1F9835306EB1A1
:10041000C3E405434D4F5645E362AE6210AF621030
:10042000AEE4EDE4ACE42706E680E7A020F6353044
:1004300035066EB1C41206434D4F56453EAE62308E
:100440008B10AF6210AEE431AB10ACE42706E6824D
:10045000E7A220F5353035066EB1313F34201F104C
:1004600037206EB1C43604534B4950362035308C9A
:1004700000002708E1A026E2301F26F820DEC4662F
:10048000045343414E362035308C00002708E1A04C
:1004900027C8301F26F820C4C48007414C49474E66
:1004A00045446EB1C49A05414C49474E6EB1C4A64D
:1004B0000543454C4C2BC300026EB1C4B005434507
:1004C0004C4C5358496EB1C4BD05434841522BC3EF
:1004D00000016EB1C4C90543484152536EB1C4D640
:1004E000053E424F4459C300036EB1C4E008434F78
:1004F0004D50494C452CBDC03FCCFAC054C4ED030F
:10050000214346BDC03FC05E00BDC0B0C150C1E484
:10051000C141C054C4FF032C4346BDC03FCCDCC521
:1005200003C05E0003CCEDC054C5160621434F4CFA
:100530004F4EBDC03FC05EFFFDCCEDC05EC03FC5AD
:100540001AC054C52B052C45584954BDC03FC05E48
:10055000C054C4F6C054C545072C4252414E4348CE
:10056000BDC03FCCFAC054C558052C44455354BDBA
:10057000C03FCCFAC054C569052144455354BDC0A1
:100580003FC141C05436203520351034061F106E4F
:10059000B1C5780728444F45533E29BDC03FC0FC34
:1005A000C7FDC15ECDD5C503C054C59345444F4575
:1005B000533EBDC03FC05EC59BC4F6C05EC585C589
:1005C0001AC054C5AC013ABDC03FD102D163D14F6E
:1005D000C532C054C5C5413BBDC03FD183C54BD119
:1005E0003EC054C5D608434F4E5354414E54BDC02F
:1005F0003FD102CCFAC59B35103406EC846EB1C5F0
:10060000E5085641524941424C45BDC03FD102C761
:1006100084CCEDC054C6010455534552BDC03FD1F2
:1006200002CCFAC59B351034061FB85FE3846EB167
:10063000C617424946BDC03FC05EC2CBC560CCDCD8
:10064000C07AC56FC054C632445448454EBDC03F01
:10065000CCDCC0A1C57EC054C64844454C5345BD02
:10066000C03FC05EC2BCC560CCDCC07AC56FC0A153
:10067000C64DC054C65A45424547494EBDC03FCC01
:10068000DCC054C67645554E54494CBDC03FC05E93
:10069000C2CBC560C56FC054C68545414741494E70
:1006A000BDC03FC05EC2BCC560C56FC054C69A45E0
:1006B0005748494C45BDC03FC635C054C6AF4652E9
:1006C0004550454154BDC03FC0A1C6A0C64DC05411
:1006D000C6BE023E4CBDC03FC784C811C20AC81185
:1006E000C15EC141C054C6D2024C3EBDC03FC8111C
:1006F000C15EC15EC784C19FC811C20AC054C6E8AA
:1007000042444FBDC03FC05EC2E5C560CCDCC05EA8
:100710000000C6D5C054C700454C45415645BDC034
:100720003FC05EC2FFC4F6C05EC2BCC560CCDCC0C8
:100730007AC56FC6D5C054C71807454E444C4F4FB5
:1007400050BDC03FC560C56FC6EBC085C2CBC756A4
:10075000C64DC2BCC748C054C739444C4F4F50BDAA
:10076000C03FC05EC30CC741C054C75A452B4C4F55
:100770004F50BDC03FC05EC330C741C054C76C04BA
:1007800043454C4CBDC5F70002C77F02424CBDC576
:10079000F70020C78B0754494253495A45BDC5F756
:1007A000007EC79503544942BDC625FF80C7A402F9
:1007B0005530BDC6250000C7AF033E494EBDC62516
:1007C0000002C7B90442415345BDC6250004C7C451
:1007D000055354415445BDC6250006C7D0024450B8
:1007E000BDC6250008C7DD0727534F55524345BDF9
:1007F000C625000AC7E7064C4154455354BDC625DB
:10080000000EC7F6024850BDC6250010C804024CB1
:1008100050BDC6250012C80E025330BDC6250100CA
:10082000C81803504144BDC6250128C822024C30D7
:10083000BDC6250180C82D025230BDC6250200C8A4
:100840003703533E44BDC03FC07AC261C054C84163
:10085000073F4E4547415445BDC03FC261C2CBC86A
:1008600063C19FC054C85003414253BDC03FC07ACA
:10087000C858C054C86707444E4547415445BDC099
:100880003FC0A1C1D2C0A1C1D2C05E0001C17DC024
:1008900054C876083F444E4547415445BDC03FC209
:1008A00061C2CBC8A7C87EC054C893044441425318
:1008B000BDC03FC07AC89CC054C8AB024D2ABDC061
:1008C0003FCA01C1C3C0F1C0A1C86BC0A1C86BC3FE
:1008D0005AC0FCC89CC054C8BB06534D2F52454D4E
:1008E000BDC03FCA01C1C3C0F1C0B0C0F1C86BC038
:1008F000F1C8B0C0FCC393C0A1C0FCC858C0A1C01F
:10090000FCC858C054C8D906464D2F4D4F44BDC0F1
:100910003FC07AC0F1C8E0C07AC261C2CBC92DC065
:10092000A1C0FCC174C0A1C1EEC2BCC931C0FCC031
:1009300096C054C907012ABDC03FC8BEC096C05466
:10094000C935042F4D4F44BDC03FC0F1C845C0FC60
:10095000C90EC054C942012FBDC03FC947C0CCC059
:1009600054C956034D4F44BDC03FC947C096C054FB
:10097000C963052A2F4D4F44BDC03FC0F1C8BEC05A
:10098000FCC90EC054C972022A2FBDC03FC978C02D
:10099000CCC054C987034D4158BDC03FCA01C28570
:1009A000C2CBC9A6C0A1C096C054C995034D494E3B
:1009B000BDC03FCA01C291C2CBC9BDC0A1C096C0D3
:1009C00054C9AC023240BDC03FC07AC4B6C15EC09B
:1009D000A1C15EC054C9C3023221BDC03FC0A1C085
:1009E000B0C141C4B6C141C054C9D7053244524F09
:1009F00050BDC03FC096C096C054C9EB04324455A8
:100A000050BDC03FC0B0C0B0C054C9FC0532535740
:100A10004150BDC03FC0BCC0F1C0BCC0FCC054CA46
:100A20000C05324F564552BDC03FC0F1C0F1CA015E
:100A3000C0FCC0FCCA12C054CA2105434F554E54D5
:100A4000BDC03FC07AC4CFC0A1C169C054CA3A0278
:100A50004352BDC03FC05E000DC031C05E000AC041
:100A600031C054CA4F055350414345BDC03FC78EA6
:100A7000C031C054CA6506535041434553BDC03FC1
:100A8000C07AC2CBCA8ECA6BC1EEC2BCCA80C09645
:100A9000C054CA7604554D494EBDC03FCA01C2ABD1
:100AA000C2CBCAA6C0A1C096C054CA9404554D4139
:100AB00058BDC03FCA01C29EC2CBCABEC0A1C0962B
:100AC000C054CAAC06414343455054BDC03FC0B0BA
:100AD000C174C1EEC0B0C006C07AC05E000DC2795C
:100AE000C2CBCB12C07AC031C07AC05E0008C26CE3
:100AF000C2CBCB04C096C1EEC0F1C0B0C0FCCAB13D
:100B0000C2BCCB0EC0B0C150C1E4C0B0CA99C2BC17
:100B1000CAD6C096C0CCC0A1C18DC054CAC40454AA
:100B2000595045BDC03FC085C2CBCB42C0B0C17497
:100B3000C0A1C2E5C340C169C031C30CCB34C2BC43
:100B4000CB44C096C054CB1E0428532229BDC03FBD
:100B5000C0FCCA40CA01C174C4ACC0F1C054CB4887
:100B6000425322BDC03FC05ECB4DC4F6C05E0022E2
:100B7000CD6FC169C1E4C4A2CCEDC054CB60422E9C
:100B800022BDC03FCB63C05ECB23C4F6C054CB7E36
:100B90000655442F4D4F44BDC03FC0F1C05E00001C
:100BA000C107C393C0BCC0BCC0FCC393C0BCC0548D
:100BB000CB900355442ABDC03FC07AC0F1C35AC090
:100BC00096C0A1C0FCC35AC0BCC174C054CBB2040F
:100BD000484F4C44BDC03FC05EFFFFC807C20AC8B3
:100BE00007C15EC150C054CBCF023C23BDC03FC83B
:100BF00026C807C141C054CBE9063E444947495481
:100C0000BDC03FC07AC05E0009C291C05E0007C18E
:100C1000ACC174C05E0030C174C054CBF90123BDB7
:100C2000C03FC7C9C15ECB97C0BCCC00CBD4C054B9
:100C3000CC1D022353BDC03FCC1FCA01C1B7C24D5A
:100C4000C2CBCC38C054CC3202233EBDC03FC9F128
:100C5000C807C15EC826C0B0C18DC054CC4804537B
:100C600049474EBDC03FC261C2CBCC72C05E002DB1
:100C7000CBD4C054CC5E02552EBDC03FCBECC05E81
:100C80000000CC35CC4BCB23CA6BC054CC76012EA4
:100C9000BDC03FCBECC07AC86BC05E0000CC35C095
:100CA000BCCC63CC4BCB23CA6BC054CC8E07444521
:100CB00043494D414CBDC03FC05E000AC7C9C14158
:100CC000C054CCAD03484558BDC03FC05E0010C7FE
:100CD000C9C141C054CCC40448455245BDC03FC7FA
:100CE000E0C15EC054CCD705414C4C4F54BDC03F11
:100CF000C7E0C20AC054CCE7012CBDC03FCCDCC168
:100D000041C05E0001C4C3CCEDC054CCF802432CFA
:100D1000BDC03FCCDCC150C05E0001C4DCCCEDC026
:100D200054CD0D06534F55524345BDC03FC7EFC983
:100D3000C6C054CD23072F535452494E47BDC03F20
:100D4000C0BCC0B0C174C0BCC0BCC18DC054CD3526
:100D5000083E434F554E544544BDC03FCA01C150A3
:100D6000C4CFC0A1C418C054CD5004574F5244BD85
:100D7000C03FC07ACD2AC7BDC15ECD3DC07AC0F1AB
:100D8000C0BCC46BC0B0C0F1C0BCC485C07AC2CB0B
:100D9000CD94C1EEC0FCC0FCC0BCC18DC7BDC20AB1
:100DA000C0D7C18DCCDCCD59CCDCC78EC0B0CA4019
:100DB000C174C150C054CD6A074E46413E4C4641B5
:100DC000BDC03FC05E0002C18DC054CDB8074E46C5
:100DD000413E434641BDC03FCA40C05E003FC1AC3A
:100DE000C174C054CDCD06494D4D45443FBDC03FB3
:100DF000C169C05E0040C1ACC054CDE60446494E56
:100E000044BDC03FC7FDC15ECA01C169C05E00BF2D
:100E1000C1ACC0A1C169C26CC2CBCE30CA01C4CFC3
:100E2000C0A1C07AC4CFC0A1C169C3E7C2BCCE34DF
:100E3000C05E0001C07AC2CBCE42C096CDC0C15EBA
:100E4000C07AC24DC2CBCE08C07AC2CBCE60C0CC75
:100E5000C07ACDD5C0A1CDEDC24DC05E0001C1B7F5
:100E6000C054CDFC474C49544552414CBDC03FC7CE
:100E7000D6C15EC2CBCE7FC05EC05EC4F6CCFAC027
:100E800054CE640644494749543FBDC03FC07AC070
:100E90005E0039C291C05E0100C1ACC174C07AC0AD
:100EA0005E0140C291C05E0107C1ACC18DC05E0051
:100EB00030C18DC07AC7C9C15EC29EC054CE830501
:100EC0003F5349474EBDC03FC0B0C169C05E002C12
:100ED000C18DC07AC86BC05E0001C26CC1ACC07A63
:100EE000C2CBCEF0C1E4C0F1C05E0001CD3DC0FC7C
:100EF000C054CEBF073E4E554D424552BDC03FC0C7
:100F00007AC2CBCF2FC0B0C169CE8AC24DC2CBCF7F
:100F100015C096C054C0F1CA12C7C9C15ECBB6C0D5
:100F2000FCC17DCA12C05E0001CD3DC2BCCEFFC077
:100F300054CEF4073F4E554D424552BDC03FC07A96
:100F4000C05E0000C05E0000C0BCCA40CEC5C0F19B
:100F5000CEFCC2CBCF64C0FCC9F1C9F1C05E0000B9
:100F6000C2BCCF74C9F1C0CCC0FCC2CBCF70C19F92
:100F7000C05EFFFFC054CF3309494E544552505212
:100F80004554BDC03FC7EFC9DAC05E0000C7BDC150
:100F900041C78ECD6FC07AC169C2CBCFDDCE01C053
:100FA00085C2CBCFBFC1E4C7D6C15EC24DC1B7C2F7
:100FB000CBCFB9C06EC2BCCFBBC4F6C2BCCFD9CFF9
:100FC0003BC2CBCFCBCE6CC2BCCFD9CA40CB23C0A7
:100FD0005E003FC031CA52D059C2BCCF91C096C04A
:100FE00054CF78084556414C55415445BDC03FC784
:100FF000EFC9C6C0F1C0F1C7BDC15EC0F1CF82C0AC
:10100000FCC7BDC141C0FCC0FCC7EFC9DAC054CFAA
:10101000E30451554954BDC03FC830C811C141C84F
:101020003AC137C05E0000C7D6C141C7A8C07AC761
:101030009DCACBCA6BCF82CA52C7D6C15EC24DC24F
:10104000CBD04BCB4D034F4B20CB23C2BCD02BC0BE
:1010500054D0110541424F5254BDC03FC81BC11F5F
:10106000D016C054D053063F41424F5254BDC03FEA
:10107000C0BCC2CBD07ACB23D059C9F1C054D06602
:101080004641424F525422BDC03FCB63C05ED06D3B
:10109000C4F6C054D0800127BDC03FC78ECD6FCEEF
:1010A00001C24DCB4D013FD06DC054D09604434892
:1010B0004152BDC03FC78ECD6FC1E4C169C054D09D
:1010C000AD465B434841525DBDC03FD0B2C05EC03B
:1010D0005EC4F6CCFAC054D0C14128BDC03FC05E4A
:1010E0000029CD6FC096C054D0D9415CBDC03FCD62
:1010F0002AC7BDC141C096C054D0EA0643524541FB
:101100005445BDC03FC7FDC15ECCFACCDCC7FDC1B4
:1011100041C78ECD6FC169C1E4CCEDC05EC045C58D
:101120001AC054D0FB4752454355525345BDC03FAA
:10113000C7FDC15ECDD5C4F6C054D125415BBDC04D
:101140003FC05E0000C7D6C141C054D13C015DBD67
:10115000C03FC05EFFFFC7D6C141C054D14D044857
:10116000494445BDC03FC7FDC15EC07AC169C05E8C
:101170000080C1B7C0A1C150C054D15E06524556CF
:1011800045414CBDC03FC7FDC15EC07AC169C05E6C
:10119000007FC1ACC0A1C150C054D17C09494D4DA4
:1011A000454449415445BDC03FC7FDC15EC07AC1F9
:1011B0005EC05E0040C1B7C0A1C150C054D19C43C5
:1011C0005B275DBDC03FD098C05EC05EC4F6CCFA60
:1011D000C054D1BF48504F5354504F4E45BDC03FEF
:1011E000C78ECD6FCE01C07AC24DCB4D013FD06DC1
:1011F000C261C2CBD208C05EC05EC4F6CCFAC05E8B
:10120000C4F6C4F6C2BCD20AC4F6C054D1D4065740
:10121000495448494EBDC03FC0B0C18DC0F1C18DD9
:10122000C0FCC29EC054D20E044D4F5645BDC03FB7
:10123000C0F1CA01C0A1C07AC107C174D215C2CB26
:10124000D24AC0FCC43DC2BCD24EC0FCC418C0547B
:10125000D228054445505448BDC03FC113C81BC0E7
:10126000A1C18DC201C054D2520C454E5649524FB5
:101270004E4D454E543FBDC03FC9F1C05E0000C059
:1012800054D26905574F524453BDC03FC7FDC15E9C
:10129000C07ACA40C05E003FC1ACCB23CA6BCDC090
:1012A000C15EC07AC24DC2CBD290C096C054D28328
:1012B000022E53BDC03FC113C81BC18DC2CBD2DAB1
:1012C000C113C81BC05E0002C18DC2E5C340C15E30
:1012D000D383C05EFFFEC330D2CCC054D2B004432F
:1012E0004F4C44BDC03FD53AC7B2D52DC418CB4DE5
:1012F0001F363830392043616D656C466F727468F3
:101300002076312E30202032352041707220393540
:10131000CB23CA52D059C054D2DE022E48BDC03FA2
:10132000C05E000FC1ACC05E0030C174C07AC05E48
:101330000039C291C2CBD33EC05E0007C174C03138
:10134000C054D31A032E4848BDC03FC07AC201C260
:1013500001C201C201D31DD31DC054D344052E4880
:10136000484848BDC03FC07AC201C201C201C201A3
:10137000C201C201C201C201D348D348C054D35DE7
:1013800002482EBDC03FD363CA6BC054D380022E27
:1013900042BDC03FC07AC169D348CA6BC1E4C054E2
:1013A000D38E022E41BDC03FC07AC169C07AC05EF3
:1013B0000020C05E007FD215C24DC2CBD3C4C09600
:1013C000C05E002EC031C1E4C054D3A20444554DC8
:1013D00050BDC03FC05E0000C2E5CA52C07AD38390
:1013E000CA6BC07AD391D391D391D391D391D39136
:1013F000D391D391CA6BD391D391D391D391D391FC
:10140000D391D391D391C096CA6BD3A5D3A5D3A5BD
:10141000D3A5D3A5D3A5D3A5D3A5D3A5D3A5D3A50C
:10142000D3A5D3A5D3A5D3A5D3A5C05E0010C33043
:10143000D3DAC096C054D3CC0453545550BDC03FEA
:10144000CA01C0A1C2E5C340C07AC141C784C3304C
:10145000D446C054D438055354555049BDC03FCA32
:1014600001C0A1C2E5C340C19FC340C141C784C3FD
:1014700030D465C054D456055453545550BDC03F64
:10148000CA01C0A1C2E5C340C07AC15EC279C2CB65
:10149000D4A2CB4D07204572726F7240CB23C3405C
:1014A000CC79C784C330D486C054D47706545354FF
:1014B000555049BDC03FCA01C0A1C2E5C340C19F4C
:1014C000C340C15EC279C2CBD4DACB4D072045728E
:1014D000726F7240CB23C340CC79C784C330D4BC75
:1014E000C054D4AC0450415353BDC03FD43DD47D0F
:1014F000D45CD4B3C054D4E406504153534553BDD7
:10150000C03FC05E0000C2E5CB4D012ECB23D4E925
:10151000C30CD508C05486061F8B10CE0700CE081A
:10152000007ED2E33BD4F80523494E4954BDC5F7AC
:101530000012D5270555494E4954BDC0450000004D
:1015400000000A0000000000000000D5340000CFB9
:1015500085BC84000034957C73000048009E94860E
:101560004C53484946D4C2831FC2CF85BC84000077
:101570004B957C73000048002D9586525348494690
:10158000D4C28338C2CF85BC84000066957C7300CA
:101590000049005B958230BDC2834DC2CF85BC84BB
:1015A000000081957C7300004900919587544F534A
:1015B000545255C5C28353C2C287AF870000989565
:1015C0007C7300004900A8958230BCC28361C2CF01
:1015D00085BC840000B4957C7300004900FF9481B1
:1015E000BDC2836CC2CF85BC840000CB957C7300E8
:1015F000004900C495823CBEC28379C2CF85BC84B9
:101600000000E1957C7300004A00F19581BCC28323
:1016100085C2CF85BC840000F8957C7300004A0029
:10162000769581BEC28391C2CF85BC8400000E96A0
:101630007C7300004A00DB958255BCC2839EC2CFFA
:1016400085BC84000024967C7300004A0034968296
:1016500055BEC283ABC2CF85BC8400003B967C7371
:1016600000004B001E96864252414E43C8C283BCC6
:10167000C2CF85BC84000052967C7300004B0044AE
:1016800095873F4252414E43C8C283CBC2CF85BCEF
:101690008400006D967C7300004B000896842844FB
:1016A0004FA9C283E5C2CF85BC84000089967C73B4
:1016B00000004B004B9686554E4C4F4FD0C283FFD7
:1016C000C2CF85BC840000A2967C7300004C0099B8
:1016D0009686284C4F4F50A9C2830CC3CF85BC843B
:1016E0000000BD967C7300004C00CD968854414BA1
:1016F000454C4F4FD0C28315C3C287AF870000D877
:10170000967C7300004C00E89687282B4C4F4F5076
:10171000A9C28330C3CF85BC840000F5967C7300DA
:10172000004C00B29681C9C28340C3CF85BC8400FF
:101730000011977C7300004C00629681CAC2834CF2
:10174000C3CF85BC84000027977C7300004D002127
:101750009783554DAAC2835AC3CF85BC8400003DF0
:10176000977C7300004E004D9786554D2F4D4FC40A
:10177000C28393C3CF85BC84000055977C7300005F
:101780004F0037978446494CCCC283CDC3CF85BC2C
:1017900084000070977C7300004F007D968253BDDB
:1017A000C283E7C3CF85BC84000089977C730000A7
:1017B0005000999785434D4F56C5C28318C4CF85B5
:1017C000BC840000A0977C7300005000B097864353
:1017D0004D4F5645BEC2833DC4CF85BC840000BA80
:1017E000977C7300005100CA9788534B4950455865
:1017F00049D4C2835AC4C287AF870000D5977C738F
:1018000000005100E59788534B4950444F4EC5C2E4
:10181000835CC4C287AF870000F2977C73000051DD
:1018200000029884534B49D0C2836BC4CF85BC84DB
:1018300000000F987C73000051001F9884534341AF
:10184000CEC28385C4CF85BC84000028987C7300F9
:101850000052008097853E424F44D9C283E6C4CFF0
:1018600085BC84000041987C730000520038988544
:1018700043484152ADE76C049553006B9888434F41
:101880004D50494C45ACC283F6C4CF85BC840000A2
:101890005B987C7300000000F9C4530065978321B6
:1018A00043C6C28303C5CF85BC84000086987C7381
:1018B000000053000597832C43C6C2831AC5CF8509
:1018C000BC840000A2987C73000000001DC50000CD
:1018D00025C553009A988621434F4C4FCEC2833280
:1018E000C5CF85BC840000BA987C730000CC9839C1
:1018F000C55300B298852C455849D4C2834BC5CFF7
:1019000085BC840000DD987C7300005300F198874B
:101910002C4252414E43C8C28360C5CF85BC84006F
:1019200000FB987C730000949863C553000B998565
:101930002C444553D4C2836FC5CF85BC84000017A7
:10194000997C730000259972C55300D29885214473
:101950004553D4C2837EC5CF85BC84000035997CB5
:1019600073000054002B99883C444F444F4553BEAC
:10197000C28385C5C287AF87000053997C7300007E
:1019800054006399864C41544553D4C283FDC7CF5C
:1019900085AA9A000070997C7300000000A0C554CD
:1019A000005198874E46413E4346C1C283D5CDCFB4
:1019B00085BC8400008B997C7300000000A4C500E6
:1019C00000CAC55500809984484944C5C28363D183
:1019D000CF85BC840000AB997C7300000000CCC5AF
:1019E0000000CEC555009F99865245564541CCC250
:1019F0008383D1CF85BC840000CC997C7300000028
:101A000000DBC50000DFC55500799888434F4E5371
:101A100054414ED4C283EEC5CF852A9A0000EF9977
:101A20007C730000BD99F1C54399F3C5230112876A
:101A3000CD728201F7C5568A23013F86236E4B0182
:101A40005500E499885641524941424CC5C2830A27
:101A5000C6CF85679A0000149A7C730000229A0D05
:101A6000C600000FC6EB9811C62301128782010041
:101A700000CD728201F7C5568A23013F864B01557E
:101A800000499984555345D2C2831CC6CF859E9A7E
:101A900000004D9A7C7300005B9A1FC6269A21C6EF
:101AA00023011287CD72820125C6568A23013F8603
:101AB000BC844B0156007F9A8249C6C28335C6CF8B
:101AC00085CD9A0000889A7C73FFFFC8983EC62394
:101AD000018201CBC2CD727072988FCD724B0156CC
:101AE00000C39984544845CEC2834DC6CF85FA9A27
:101AF0000000BB9A7C73FFFFC99A50C62301707225
:101B0000A58F406E4B015600B49A84454C53C5C214
:101B1000835FC6CF85219B0000E89A7C73FFFFF6A8
:101B20009A68C623018201BCC2CD727072988FCDB3
:101B300072A58F7072A58F406E4B015700409A8539
:101B400042454749CEC2837CC6CF85579B00000FD4
:101B50009B7C73FFFF1D9B7FC6230170724B015757
:101B600000069B85554E5449CCC2838BC6CF8577E2
:101B70009B0000459B7C73FFFF23018201CBC2CDFC
:101B800072CD724B0157005F9B8541474149CEC2E0
:101B900083A0C6CF859D9B0000699B7C73FFFF23BC
:101BA000018201BCC2CD72CD724B015700079A85EC
:101BB0005748494CC5C283B5C6CF85C39B00008F2B
:101BC0009B7C73FFFF23018201CBC2CD72707298A0
:101BD0008FCD724B0158003B9B865245504541D4F6
:101BE000C283C5C6CF85EE9B0000B59B7C73FFFF0B
:101BF0002301A58F8201BCC2CD72CD727072A58FF8
:101C0000406E4B015800D59B823ECCC283D5C6CFD7
:101C100085BC840000E09B7C7300005F9AD8C658A6
:101C200000DF9A824CD0C28311C8CF85AA9A0000E7
:101C30000B9C7C7300000000DAC6349CDEC65800A2
:101C40001F9C824CBEC283EBC6CF85BC840000269D
:101C50009C7C730000389CEEC6199CF4C6539CF81B
:101C6000C658003E9C8244CFC28303C7CF857A9C6E
:101C70000000459C7C73FFFF539B0CC7230182012E
:101C8000E5C2CD72707282010000668F4B01580070
:101C9000619C854C454156C5C2831EC7CF85AA9C11
:101CA0000000689C7C73FFFF769C2DC72301820196
:101CB000FFC2CD728201BCC2CD727072988FCD729C
:101CC000668F4B015900859B87454E444C4F4FD042
:101CD000C28341C7CF85BC840000989C7C73000000
:101CE0005900D58F8854454E444C4F4FD02301CDD9
:101CF00072CD727E8F4904A601039D7072A58F403C
:101D00006E9301F19C4B0159008E9C844C4F4FD037
:101D1000C2835FC7CF851E9D0000D09C7C73FFFFF0
:101D2000230182010CC3EB9C4B015900AB9B852B1B
:101D30004C4F4FD0C28372C7CF85429D0000109D8B
:101D40007C73FFFF2301820130C3EB9C4B015A00DF
:101D5000049C8242CCC2838EC7CF85369A00003461
:101D60009D7C7300005A00079D8754494253495A8D
:101D7000C5C2839DC7CF85369A0000559D7C7300F0
:101D8000005B00659D835449C2C283A8C7CF85AA62
:101D90009A0000719D7C7300005B00C49C8255B06A
:101DA000C283B2C7CF85AA9A0000899D7C730000C8
:101DB0005B004E9D833E49CEC283BDC7CF85AA9AA4
:101DC0000000A09D7C7300005B00B09D84424153E5
:101DD000C5C283C9C7CF85AA9A0000B89D7C73008D
:101DE000005B002A9D8553544154C5C283D6C7CF9A
:101DF00085AA9A0000D19D7C7300005B00819D82C2
:101E000044D0C283E0C7CF85AA9A0000EB9D7C73C3
:101E100000005B00E19D8727534F555243C5C283A5
:101E2000EFC7CF85AA9A0000029E7C7300005B007A
:101E3000FB9D8248D0C28307C8CF85AA9A00001EA6
:101E40009E7C7300005B00129E8253B0C2831BC84D
:101E5000CF85AA9A0000359E7C7300005B002E9E01
:101E6000835041C4C28326C8CF85AA9A00004C9EE5
:101E70007C7300005B005C9E824CB0C28330C8CF94
:101E800085AA9A0000649E7C7300005B00C89D8256
:101E900052B0C2833AC8CF85AA9A00007B9E7C7359
:101EA00000005C00459E83533EC4C28345C8CF8575
:101EB000BC840000929E7C7300005C00A29E873F61
:101EC0004E45474154C5C28358C8CF85BC840000E5
:101ED000AA9E7C7300005C00999D834142D3C2831B
:101EE0006BC8CF85BC840000C69E7C7300005C007C
:101EF000749E87444E45474154C5C2837EC8CF85F2
:101F0000BC840000DE9E7C7300005C00BA9E883FAB
:101F1000444E45474154C5C2839CC8CF85BC84000C
:101F200000FA9E7C7300005C00EE9E84444142D324
:101F3000C283B0C8CF85BC840000179F7C730000AB
:101F40005D00D69E824DAAC283BEC8CF85BC8400E8
:101F500000309F7C7300005D008B9E84324455D01E
:101F6000C28301CACF85BC840000479F7C730000F8
:101F70000000C1C85D000A9F86534D2F5245CDC257
:101F800083E0C8CF85BC840000609F7C7300006E36
:101F90009FE3C85E00579F86464D2F4D4FC4C283B6
:101FA0000EC9CF85BC8400007F9F7C7300005E005B
:101FB000939F81AAC28337C9CF85BC8400009E9FAE
:101FC0007C7300005E00749F842F4D4FC4C2834712
:101FD000C9CF85BC840000B49F7C7300005E00C440
:101FE0009F81AFC28358C9CF85BC840000CD9F7C40
:101FF000D524D524D524D524D524D524D524D51627
:00400001BF
